{
  "contractName": "Loonie",
  "abi": [
    {
      "constant": true,
      "inputs": [],
      "name": "name",
      "outputs": [
        {
          "name": "",
          "type": "string"
        }
      ],
      "payable": false,
      "stateMutability": "view",
      "type": "function"
    },
    {
      "constant": true,
      "inputs": [],
      "name": "totalSupply",
      "outputs": [
        {
          "name": "",
          "type": "uint256"
        }
      ],
      "payable": false,
      "stateMutability": "view",
      "type": "function"
    },
    {
      "constant": true,
      "inputs": [],
      "name": "maxTotalSupply",
      "outputs": [
        {
          "name": "",
          "type": "uint256"
        }
      ],
      "payable": false,
      "stateMutability": "view",
      "type": "function"
    },
    {
      "constant": true,
      "inputs": [],
      "name": "decimals",
      "outputs": [
        {
          "name": "",
          "type": "uint8"
        }
      ],
      "payable": false,
      "stateMutability": "view",
      "type": "function"
    },
    {
      "constant": true,
      "inputs": [],
      "name": "chainStartTime",
      "outputs": [
        {
          "name": "",
          "type": "uint256"
        }
      ],
      "payable": false,
      "stateMutability": "view",
      "type": "function"
    },
    {
      "constant": true,
      "inputs": [
        {
          "name": "",
          "type": "address"
        },
        {
          "name": "",
          "type": "uint256"
        }
      ],
      "name": "transferIns",
      "outputs": [
        {
          "name": "amount",
          "type": "uint128"
        },
        {
          "name": "time",
          "type": "uint64"
        }
      ],
      "payable": false,
      "stateMutability": "view",
      "type": "function"
    },
    {
      "constant": true,
      "inputs": [
        {
          "name": "",
          "type": "address"
        }
      ],
      "name": "balanceOf",
      "outputs": [
        {
          "name": "",
          "type": "uint256"
        }
      ],
      "payable": false,
      "stateMutability": "view",
      "type": "function"
    },
    {
      "constant": true,
      "inputs": [],
      "name": "stakeStartTime",
      "outputs": [
        {
          "name": "",
          "type": "uint256"
        }
      ],
      "payable": false,
      "stateMutability": "view",
      "type": "function"
    },
    {
      "constant": true,
      "inputs": [],
      "name": "symbol",
      "outputs": [
        {
          "name": "",
          "type": "string"
        }
      ],
      "payable": false,
      "stateMutability": "view",
      "type": "function"
    },
    {
      "constant": true,
      "inputs": [],
      "name": "_owner",
      "outputs": [
        {
          "name": "",
          "type": "address"
        }
      ],
      "payable": false,
      "stateMutability": "view",
      "type": "function"
    },
    {
      "constant": true,
      "inputs": [],
      "name": "stakeMinAge",
      "outputs": [
        {
          "name": "",
          "type": "uint256"
        }
      ],
      "payable": false,
      "stateMutability": "view",
      "type": "function"
    },
    {
      "constant": true,
      "inputs": [],
      "name": "chainStartBlockNumber",
      "outputs": [
        {
          "name": "",
          "type": "uint256"
        }
      ],
      "payable": false,
      "stateMutability": "view",
      "type": "function"
    },
    {
      "constant": true,
      "inputs": [
        {
          "name": "",
          "type": "address"
        },
        {
          "name": "",
          "type": "address"
        }
      ],
      "name": "allowance",
      "outputs": [
        {
          "name": "",
          "type": "uint256"
        }
      ],
      "payable": false,
      "stateMutability": "view",
      "type": "function"
    },
    {
      "constant": true,
      "inputs": [],
      "name": "stakeMaxAge",
      "outputs": [
        {
          "name": "",
          "type": "uint256"
        }
      ],
      "payable": false,
      "stateMutability": "view",
      "type": "function"
    },
    {
      "constant": true,
      "inputs": [],
      "name": "maxMintProofOfStake",
      "outputs": [
        {
          "name": "",
          "type": "uint256"
        }
      ],
      "payable": false,
      "stateMutability": "view",
      "type": "function"
    },
    {
      "inputs": [
        {
          "name": "initialSupply",
          "type": "uint256"
        },
        {
          "name": "maxiTotalSupply",
          "type": "uint256"
        },
        {
          "name": "tokenName",
          "type": "string"
        },
        {
          "name": "tokenSymbol",
          "type": "string"
        }
      ],
      "payable": false,
      "stateMutability": "nonpayable",
      "type": "constructor"
    },
    {
      "anonymous": false,
      "inputs": [
        {
          "indexed": true,
          "name": "from",
          "type": "address"
        },
        {
          "indexed": true,
          "name": "to",
          "type": "address"
        },
        {
          "indexed": false,
          "name": "value",
          "type": "uint256"
        }
      ],
      "name": "Transfer",
      "type": "event"
    },
    {
      "anonymous": false,
      "inputs": [
        {
          "indexed": true,
          "name": "_owner",
          "type": "address"
        },
        {
          "indexed": true,
          "name": "_spender",
          "type": "address"
        },
        {
          "indexed": false,
          "name": "_value",
          "type": "uint256"
        }
      ],
      "name": "Approval",
      "type": "event"
    },
    {
      "anonymous": false,
      "inputs": [
        {
          "indexed": true,
          "name": "from",
          "type": "address"
        },
        {
          "indexed": false,
          "name": "value",
          "type": "uint256"
        }
      ],
      "name": "Burn",
      "type": "event"
    },
    {
      "anonymous": false,
      "inputs": [
        {
          "indexed": true,
          "name": "_address",
          "type": "address"
        },
        {
          "indexed": false,
          "name": "_reward",
          "type": "uint256"
        }
      ],
      "name": "Mint",
      "type": "event"
    },
    {
      "constant": false,
      "inputs": [
        {
          "name": "_to",
          "type": "address"
        },
        {
          "name": "_value",
          "type": "uint256"
        }
      ],
      "name": "transfer",
      "outputs": [
        {
          "name": "success",
          "type": "bool"
        }
      ],
      "payable": false,
      "stateMutability": "nonpayable",
      "type": "function"
    },
    {
      "constant": false,
      "inputs": [
        {
          "name": "_from",
          "type": "address"
        },
        {
          "name": "_to",
          "type": "address"
        },
        {
          "name": "_value",
          "type": "uint256"
        }
      ],
      "name": "transferFrom",
      "outputs": [
        {
          "name": "success",
          "type": "bool"
        }
      ],
      "payable": false,
      "stateMutability": "nonpayable",
      "type": "function"
    },
    {
      "constant": false,
      "inputs": [
        {
          "name": "_spender",
          "type": "address"
        },
        {
          "name": "_value",
          "type": "uint256"
        }
      ],
      "name": "approve",
      "outputs": [
        {
          "name": "success",
          "type": "bool"
        }
      ],
      "payable": false,
      "stateMutability": "nonpayable",
      "type": "function"
    },
    {
      "constant": false,
      "inputs": [
        {
          "name": "_spender",
          "type": "address"
        },
        {
          "name": "_value",
          "type": "uint256"
        },
        {
          "name": "_extraData",
          "type": "bytes"
        }
      ],
      "name": "approveAndCall",
      "outputs": [
        {
          "name": "success",
          "type": "bool"
        }
      ],
      "payable": false,
      "stateMutability": "nonpayable",
      "type": "function"
    },
    {
      "constant": false,
      "inputs": [],
      "name": "mint",
      "outputs": [
        {
          "name": "",
          "type": "bool"
        }
      ],
      "payable": false,
      "stateMutability": "nonpayable",
      "type": "function"
    },
    {
      "constant": true,
      "inputs": [],
      "name": "getBlockNumber",
      "outputs": [
        {
          "name": "blockNumber",
          "type": "uint256"
        }
      ],
      "payable": false,
      "stateMutability": "view",
      "type": "function"
    },
    {
      "constant": true,
      "inputs": [],
      "name": "coinAge",
      "outputs": [
        {
          "name": "myCoinAge",
          "type": "uint256"
        }
      ],
      "payable": false,
      "stateMutability": "view",
      "type": "function"
    },
    {
      "constant": true,
      "inputs": [],
      "name": "annualInterest",
      "outputs": [
        {
          "name": "interest",
          "type": "uint256"
        }
      ],
      "payable": false,
      "stateMutability": "view",
      "type": "function"
    },
    {
      "constant": false,
      "inputs": [
        {
          "name": "timestamp",
          "type": "uint256"
        }
      ],
      "name": "ownerSetStakeStartTime",
      "outputs": [],
      "payable": false,
      "stateMutability": "nonpayable",
      "type": "function"
    },
    {
      "constant": false,
      "inputs": [
        {
          "name": "_value",
          "type": "uint256"
        }
      ],
      "name": "burn",
      "outputs": [
        {
          "name": "success",
          "type": "bool"
        }
      ],
      "payable": false,
      "stateMutability": "nonpayable",
      "type": "function"
    },
    {
      "constant": false,
      "inputs": [
        {
          "name": "_from",
          "type": "address"
        },
        {
          "name": "_value",
          "type": "uint256"
        }
      ],
      "name": "burnFrom",
      "outputs": [
        {
          "name": "success",
          "type": "bool"
        }
      ],
      "payable": false,
      "stateMutability": "nonpayable",
      "type": "function"
    }
  ],
  "bytecode": "0x60806040526012600360006101000a81548160ff021916908360ff1602179055506203f4806007556276a70060085567016345785d8a00006009553480156200004757600080fd5b50604051620027123803806200271283398101806040528101908080519060200190929190805190602001909291908051820192919060200180518201929190505050336000806101000a81548173ffffffffffffffffffffffffffffffffffffffff021916908373ffffffffffffffffffffffffffffffffffffffff16021790555062000102600360009054906101000a900460ff1660ff16600a0a856200020f640100000000026200234a179091906401000000009004565b600a8190555062000140600360009054906101000a900460ff1660ff16600a0a846200020f640100000000026200234a179091906401000000009004565b600b81905550600a54600c60008060009054906101000a900473ffffffffffffffffffffffffffffffffffffffff1673ffffffffffffffffffffffffffffffffffffffff1673ffffffffffffffffffffffffffffffffffffffff168152602001908152602001600020819055508160019080519060200190620001c59291906200029f565b508060029080519060200190620001de9291906200029f565b5042600481905550620001ff62000251640100000000026401000000009004565b600581905550505050506200034e565b60008060008414156200022657600091506200024a565b82840290508284828115156200023857fe5b041415156200024657600080fd5b8091505b5092915050565b600062000278600554436200027d6401000000000262001eaa179091906401000000009004565b905090565b6000808383111515156200029057600080fd5b82840390508091505092915050565b828054600181600116156101000203166002900490600052602060002090601f016020900481019282601f10620002e257805160ff191683800117855562000313565b8280016001018555821562000313579182015b8281111562000312578251825591602001919060010190620002f5565b5b50905062000322919062000326565b5090565b6200034b91905b80821115620003475760008160009055506001016200032d565b5090565b90565b6123b4806200035e6000396000f300608060405260043610610154576000357c0100000000000000000000000000000000000000000000000000000000900463ffffffff16806306fdde0314610159578063095ea7b3146101e95780631249c58b1461024e57806318160ddd1461027d5780631e1b13c0146102a857806323b872dd146102d35780632a9edf6f146103585780632ab4d05214610385578063313ce567146103b057806342966c68146103e157806342cbb15c146104265780635b054f9b1461045157806365476ea31461047c57806370a082311461051c5780637419f1901461057357806379cc67901461059e57806395d89b4114610603578063a9059cbb14610693578063b2552fc4146106f8578063b2bdfa7b14610723578063cae9ca511461077a578063cbd8877e14610825578063cd474b0414610850578063dd62ed3e1461087b578063e1c3bac6146108f2578063f2bb5ce11461091d575b600080fd5b34801561016557600080fd5b5061016e610948565b6040518080602001828103825283818151815260200191508051906020019080838360005b838110156101ae578082015181840152602081019050610193565b50505050905090810190601f1680156101db5780820380516001836020036101000a031916815260200191505b509250505060405180910390f35b3480156101f557600080fd5b50610234600480360381019080803573ffffffffffffffffffffffffffffffffffffffff169060200190929190803590602001909291905050506109e6565b604051808215151515815260200191505060405180910390f35b34801561025a57600080fd5b50610263610ad8565b604051808215151515815260200191505060405180910390f35b34801561028957600080fd5b50610292610eb0565b6040518082815260200191505060405180910390f35b3480156102b457600080fd5b506102bd610eb6565b6040518082815260200191505060405180910390f35b3480156102df57600080fd5b5061033e600480360381019080803573ffffffffffffffffffffffffffffffffffffffff169060200190929190803573ffffffffffffffffffffffffffffffffffffffff16906020019092919080359060200190929190505050610ec7565b604051808215151515815260200191505060405180910390f35b34801561036457600080fd5b5061038360048036038101908080359060200190929190505050611108565b005b34801561039157600080fd5b5061039a6111f6565b6040518082815260200191505060405180910390f35b3480156103bc57600080fd5b506103c56111fc565b604051808260ff1660ff16815260200191505060405180910390f35b3480156103ed57600080fd5b5061040c6004803603810190808035906020019092919050505061120f565b604051808215151515815260200191505060405180910390f35b34801561043257600080fd5b5061043b611372565b6040518082815260200191505060405180910390f35b34801561045d57600080fd5b5061046661138e565b6040518082815260200191505060405180910390f35b34801561048857600080fd5b506104c7600480360381019080803573ffffffffffffffffffffffffffffffffffffffff16906020019092919080359060200190929190505050611394565b60405180836fffffffffffffffffffffffffffffffff166fffffffffffffffffffffffffffffffff1681526020018267ffffffffffffffff1667ffffffffffffffff1681526020019250505060405180910390f35b34801561052857600080fd5b5061055d600480360381019080803573ffffffffffffffffffffffffffffffffffffffff169060200190929190505050611400565b6040518082815260200191505060405180910390f35b34801561057f57600080fd5b50610588611418565b6040518082815260200191505060405180910390f35b3480156105aa57600080fd5b506105e9600480360381019080803573ffffffffffffffffffffffffffffffffffffffff1690602001909291908035906020019092919050505061141e565b604051808215151515815260200191505060405180910390f35b34801561060f57600080fd5b5061061861176b565b6040518080602001828103825283818151815260200191508051906020019080838360005b8381101561065857808201518184015260208101905061063d565b50505050905090810190601f1680156106855780820380516001836020036101000a031916815260200191505b509250505060405180910390f35b34801561069f57600080fd5b506106de600480360381019080803573ffffffffffffffffffffffffffffffffffffffff16906020019092919080359060200190929190505050611809565b604051808215151515815260200191505060405180910390f35b34801561070457600080fd5b5061070d611820565b6040518082815260200191505060405180910390f35b34801561072f57600080fd5b506107386118d4565b604051808273ffffffffffffffffffffffffffffffffffffffff1673ffffffffffffffffffffffffffffffffffffffff16815260200191505060405180910390f35b34801561078657600080fd5b5061080b600480360381019080803573ffffffffffffffffffffffffffffffffffffffff16906020019092919080359060200190929190803590602001908201803590602001908080601f01602080910402602001604051908101604052809392919081815260200183838082843782019150505050505091929192905050506118f9565b604051808215151515815260200191505060405180910390f35b34801561083157600080fd5b5061083a611a7c565b6040518082815260200191505060405180910390f35b34801561085c57600080fd5b50610865611a82565b6040518082815260200191505060405180910390f35b34801561088757600080fd5b506108dc600480360381019080803573ffffffffffffffffffffffffffffffffffffffff169060200190929190803573ffffffffffffffffffffffffffffffffffffffff169060200190929190505050611a88565b6040518082815260200191505060405180910390f35b3480156108fe57600080fd5b50610907611aad565b6040518082815260200191505060405180910390f35b34801561092957600080fd5b50610932611ab3565b6040518082815260200191505060405180910390f35b60018054600181600116156101000203166002900480601f0160208091040260200160405190810160405280929190818152602001828054600181600116156101000203166002900480156109de5780601f106109b3576101008083540402835291602001916109de565b820191906000526020600020905b8154815290600101906020018083116109c157829003601f168201915b505050505081565b600081600d60003373ffffffffffffffffffffffffffffffffffffffff1673ffffffffffffffffffffffffffffffffffffffff16815260200190815260200160002060008573ffffffffffffffffffffffffffffffffffffffff1673ffffffffffffffffffffffffffffffffffffffff168152602001908152602001600020819055508273ffffffffffffffffffffffffffffffffffffffff163373ffffffffffffffffffffffffffffffffffffffff167f8c5be1e5ebec7d5bd14f71427d1e84f3dd0314c0f7b2291e5b200ac8c7c3b925846040518082815260200191505060405180910390a36001905092915050565b600080600b54600a54101515610aed57600080fd5b6000600c60003373ffffffffffffffffffffffffffffffffffffffff1673ffffffffffffffffffffffffffffffffffffffff16815260200190815260200160002054111515610b3f5760009150610eac565b6000600e60003373ffffffffffffffffffffffffffffffffffffffff1673ffffffffffffffffffffffffffffffffffffffff16815260200190815260200160002080549050111515610b945760009150610eac565b610b9d33611ab9565b9050600081111515610c17576040517f08c379a000000000000000000000000000000000000000000000000000000000815260040180806020018281038252601d8152602001807f596f7520646f6e2774206861766520656e6f756768207265776172647300000081525060200191505060405180910390fd5b610c2c81600a54611be390919063ffffffff16565b600a81905550610c8481600c60003373ffffffffffffffffffffffffffffffffffffffff1673ffffffffffffffffffffffffffffffffffffffff16815260200190815260200160002054611be390919063ffffffff16565b600c60003373ffffffffffffffffffffffffffffffffffffffff1673ffffffffffffffffffffffffffffffffffffffff16815260200190815260200160002081905550600e60003373ffffffffffffffffffffffffffffffffffffffff1673ffffffffffffffffffffffffffffffffffffffff1681526020019081526020016000206000610d1291906122cc565b600e60003373ffffffffffffffffffffffffffffffffffffffff1673ffffffffffffffffffffffffffffffffffffffff1681526020019081526020016000206040805190810160405280600c60003373ffffffffffffffffffffffffffffffffffffffff1673ffffffffffffffffffffffffffffffffffffffff168152602001908152602001600020546fffffffffffffffffffffffffffffffff1681526020014267ffffffffffffffff1681525090806001815401808255809150509060018203906000526020600020016000909192909190915060008201518160000160006101000a8154816fffffffffffffffffffffffffffffffff02191690836fffffffffffffffffffffffffffffffff16021790555060208201518160000160106101000a81548167ffffffffffffffff021916908367ffffffffffffffff1602179055505050503373ffffffffffffffffffffffffffffffffffffffff167f0f6798a560793a54c3bcfe86a93cde1e73087d944c0ea20544137d4121396885826040518082815260200191505060405180910390a2600191505b5090565b600a5481565b6000610ec23342611c04565b905090565b6000600d60008573ffffffffffffffffffffffffffffffffffffffff1673ffffffffffffffffffffffffffffffffffffffff16815260200190815260200160002060003373ffffffffffffffffffffffffffffffffffffffff1673ffffffffffffffffffffffffffffffffffffffff168152602001908152602001600020548211151515610fe3576040517f08c379a000000000000000000000000000000000000000000000000000000000815260040180806020018281038252602b8152602001807f596f7520617265206e6f7420616c6c6f77656420746f207472616e736665722081526020017f7468617420616d6f756e7400000000000000000000000000000000000000000081525060400191505060405180910390fd5b61107282600d60008773ffffffffffffffffffffffffffffffffffffffff1673ffffffffffffffffffffffffffffffffffffffff16815260200190815260200160002060003373ffffffffffffffffffffffffffffffffffffffff1673ffffffffffffffffffffffffffffffffffffffff16815260200190815260200160002054611eaa90919063ffffffff16565b600d60008673ffffffffffffffffffffffffffffffffffffffff1673ffffffffffffffffffffffffffffffffffffffff16815260200190815260200160002060003373ffffffffffffffffffffffffffffffffffffffff1673ffffffffffffffffffffffffffffffffffffffff168152602001908152602001600020819055506110fd848484611ecb565b600190509392505050565b6000809054906101000a900473ffffffffffffffffffffffffffffffffffffffff1673ffffffffffffffffffffffffffffffffffffffff163373ffffffffffffffffffffffffffffffffffffffff1614151561116357600080fd5b60006006541115801561117857506004548110155b15156111ec576040517f08c379a00000000000000000000000000000000000000000000000000000000081526004018080602001828103825260178152602001807f5468652074696d65206973206e6f7420636f727265637400000000000000000081525060200191505060405180910390fd5b8060068190555050565b600b5481565b600360009054906101000a900460ff1681565b600081600c60003373ffffffffffffffffffffffffffffffffffffffff1673ffffffffffffffffffffffffffffffffffffffff16815260200190815260200160002054101580156112605750600082115b151561126b57600080fd5b6112bd82600c60003373ffffffffffffffffffffffffffffffffffffffff1673ffffffffffffffffffffffffffffffffffffffff16815260200190815260200160002054611eaa90919063ffffffff16565b600c60003373ffffffffffffffffffffffffffffffffffffffff1673ffffffffffffffffffffffffffffffffffffffff1681526020019081526020016000208190555061131582600a54611eaa90919063ffffffff16565b600a819055503373ffffffffffffffffffffffffffffffffffffffff167fcc16f5dbb4873280815c1ee09dbd06736cffcc184412cf7a71a0fdb75d397ca5836040518082815260200191505060405180910390a260019050919050565b600061138960055443611eaa90919063ffffffff16565b905090565b60045481565b600e602052816000526040600020818154811015156113af57fe5b90600052602060002001600091509150508060000160009054906101000a90046fffffffffffffffffffffffffffffffff16908060000160109054906101000a900467ffffffffffffffff16905082565b600c6020528060005260406000206000915090505481565b60065481565b60008060009054906101000a900473ffffffffffffffffffffffffffffffffffffffff1673ffffffffffffffffffffffffffffffffffffffff163373ffffffffffffffffffffffffffffffffffffffff1614151561147b57600080fd5b81600c60008573ffffffffffffffffffffffffffffffffffffffff1673ffffffffffffffffffffffffffffffffffffffff16815260200190815260200160002054101515156114c957600080fd5b600d60008473ffffffffffffffffffffffffffffffffffffffff1673ffffffffffffffffffffffffffffffffffffffff16815260200190815260200160002060003373ffffffffffffffffffffffffffffffffffffffff1673ffffffffffffffffffffffffffffffffffffffff16815260200190815260200160002054821115151561155457600080fd5b6115a682600c60008673ffffffffffffffffffffffffffffffffffffffff1673ffffffffffffffffffffffffffffffffffffffff16815260200190815260200160002054611eaa90919063ffffffff16565b600c60008573ffffffffffffffffffffffffffffffffffffffff1673ffffffffffffffffffffffffffffffffffffffff1681526020019081526020016000208190555061167882600d60008673ffffffffffffffffffffffffffffffffffffffff1673ffffffffffffffffffffffffffffffffffffffff16815260200190815260200160002060003373ffffffffffffffffffffffffffffffffffffffff1673ffffffffffffffffffffffffffffffffffffffff16815260200190815260200160002054611eaa90919063ffffffff16565b600d60008573ffffffffffffffffffffffffffffffffffffffff1673ffffffffffffffffffffffffffffffffffffffff16815260200190815260200160002060003373ffffffffffffffffffffffffffffffffffffffff1673ffffffffffffffffffffffffffffffffffffffff1681526020019081526020016000208190555061170d82600a54611eaa90919063ffffffff16565b600a819055508273ffffffffffffffffffffffffffffffffffffffff167fcc16f5dbb4873280815c1ee09dbd06736cffcc184412cf7a71a0fdb75d397ca5836040518082815260200191505060405180910390a26001905092915050565b60028054600181600116156101000203166002900480601f0160208091040260200160405190810160405280929190818152602001828054600181600116156101000203166002900480156118015780601f106117d657610100808354040283529160200191611801565b820191906000526020600020905b8154815290600101906020018083116117e457829003601f168201915b505050505081565b6000611816338484611ecb565b6001905092915050565b600080429050600954915060006118586301e1338061184a60065485611eaa90919063ffffffff16565b6122a290919063ffffffff16565b141561187f576118786064600954610302026122a290919063ffffffff16565b91506118d0565b60016118ac6301e1338061189e60065485611eaa90919063ffffffff16565b6122a290919063ffffffff16565b14156118cf576118cc60646009546101b3026122a290919063ffffffff16565b91505b5b5090565b6000809054906101000a900473ffffffffffffffffffffffffffffffffffffffff1681565b60008084905061190985856109e6565b15611a73578073ffffffffffffffffffffffffffffffffffffffff16638f4ffcb1338630876040518563ffffffff167c0100000000000000000000000000000000000000000000000000000000028152600401808573ffffffffffffffffffffffffffffffffffffffff1673ffffffffffffffffffffffffffffffffffffffff1681526020018481526020018373ffffffffffffffffffffffffffffffffffffffff1673ffffffffffffffffffffffffffffffffffffffff16815260200180602001828103825283818151815260200191508051906020019080838360005b83811015611a035780820151818401526020810190506119e8565b50505050905090810190601f168015611a305780820380516001836020036101000a031916815260200191505b5095505050505050600060405180830381600087803b158015611a5257600080fd5b505af1158015611a66573d6000803e3d6000fd5b5050505060019150611a74565b5b509392505050565b60075481565b60055481565b600d602052816000526040600020602052806000526040600020600091509150505481565b60085481565b60095481565b6000806000806006544210158015611ad357506000600654115b1515611ade57600080fd5b429250611aeb8584611c04565b9150600082111515611b005760009350611bdb565b60095490506000611b326301e13380611b2460065487611eaa90919063ffffffff16565b6122a290919063ffffffff16565b1415611b5957611b526064600954610302026122a290919063ffffffff16565b9050611baa565b6001611b866301e13380611b7860065487611eaa90919063ffffffff16565b6122a290919063ffffffff16565b1415611ba957611ba660646009546101b3026122a290919063ffffffff16565b90505b5b611bd8600360009054906101000a900460ff1660ff16600a0a61016d028284026122a290919063ffffffff16565b93505b505050919050565b6000808284019050838110151515611bfa57600080fd5b8091505092915050565b600080600080600e60008773ffffffffffffffffffffffffffffffffffffffff1673ffffffffffffffffffffffffffffffffffffffff16815260200190815260200160002080549050111515611c5d5760009250611ea2565b600091505b600e60008673ffffffffffffffffffffffffffffffffffffffff1673ffffffffffffffffffffffffffffffffffffffff16815260200190815260200160002080549050821015611ea157611d38600754600e60008873ffffffffffffffffffffffffffffffffffffffff1673ffffffffffffffffffffffffffffffffffffffff16815260200190815260200160002084815481101515611cfe57fe5b9060005260206000200160000160109054906101000a900467ffffffffffffffff1667ffffffffffffffff16611be390919063ffffffff16565b841015611d4457611e94565b611dce600e60008773ffffffffffffffffffffffffffffffffffffffff1673ffffffffffffffffffffffffffffffffffffffff16815260200190815260200160002083815481101515611d9357fe5b9060005260206000200160000160109054906101000a900467ffffffffffffffff1667ffffffffffffffff1685611eaa90919063ffffffff16565b9050600854811115611de05760085490505b611e91611df962015180836122a290919063ffffffff16565b600e60008873ffffffffffffffffffffffffffffffffffffffff1673ffffffffffffffffffffffffffffffffffffffff16815260200190815260200160002084815481101515611e4557fe5b9060005260206000200160000160009054906101000a90046fffffffffffffffffffffffffffffffff166fffffffffffffffffffffffffffffffff160284611be390919063ffffffff16565b92505b8180600101925050611c62565b5b505092915050565b600080838311151515611ebc57600080fd5b82840390508091505092915050565b6000808373ffffffffffffffffffffffffffffffffffffffff1614151515611ef257600080fd5b81600c60008673ffffffffffffffffffffffffffffffffffffffff1673ffffffffffffffffffffffffffffffffffffffff1681526020019081526020016000205410151515611f4057600080fd5b600c60008473ffffffffffffffffffffffffffffffffffffffff1673ffffffffffffffffffffffffffffffffffffffff16815260200190815260200160002054611fd283600c60008773ffffffffffffffffffffffffffffffffffffffff1673ffffffffffffffffffffffffffffffffffffffff16815260200190815260200160002054611be390919063ffffffff16565b10151515611fdf57600080fd5b612070600c60008573ffffffffffffffffffffffffffffffffffffffff1673ffffffffffffffffffffffffffffffffffffffff16815260200190815260200160002054600c60008773ffffffffffffffffffffffffffffffffffffffff1673ffffffffffffffffffffffffffffffffffffffff16815260200190815260200160002054611be390919063ffffffff16565b90506120c482600c60008773ffffffffffffffffffffffffffffffffffffffff1673ffffffffffffffffffffffffffffffffffffffff16815260200190815260200160002054611eaa90919063ffffffff16565b600c60008673ffffffffffffffffffffffffffffffffffffffff1673ffffffffffffffffffffffffffffffffffffffff1681526020019081526020016000208190555061215982600c60008673ffffffffffffffffffffffffffffffffffffffff1673ffffffffffffffffffffffffffffffffffffffff16815260200190815260200160002054611be390919063ffffffff16565b600c60008573ffffffffffffffffffffffffffffffffffffffff1673ffffffffffffffffffffffffffffffffffffffff168152602001908152602001600020819055508273ffffffffffffffffffffffffffffffffffffffff168473ffffffffffffffffffffffffffffffffffffffff167fddf252ad1be2c89b69c2b068fc378daa952ba7f163c4a11628f55a4df523b3ef846040518082815260200191505060405180910390a380612293600c60008673ffffffffffffffffffffffffffffffffffffffff1673ffffffffffffffffffffffffffffffffffffffff16815260200190815260200160002054600c60008873ffffffffffffffffffffffffffffffffffffffff1673ffffffffffffffffffffffffffffffffffffffff16815260200190815260200160002054611be390919063ffffffff16565b14151561229c57fe5b50505050565b6000806000831115156122b457600080fd5b82848115156122bf57fe5b0490508091505092915050565b50805460008255906000526020600020908101906122ea91906122ed565b50565b61234791905b8082111561234357600080820160006101000a8154906fffffffffffffffffffffffffffffffff02191690556000820160106101000a81549067ffffffffffffffff0219169055506001016122f3565b5090565b90565b600080600084141561235f5760009150612381565b828402905082848281151561237057fe5b0414151561237d57600080fd5b8091505b50929150505600a165627a7a723058203e7c1dd8676b97cd65d1f0cb8ff169bfe6ae0ab44d92898466d7dd28330cfe1b0029",
  "source": "pragma solidity ^0.4.24;\r\n/**\r\n * This is the Loonie Token\r\n * The utility token for the Loonie platform\r\n * @author Insculpt Inc.\r\n */\r\n\r\nimport \"./SafeMath.sol\";\r\n\r\ninterface tokenRecipient { function receiveApproval(address _from, uint256 _value, address _token, bytes _extraData) external; }\r\n/**\r\n * The Ownable contract does this and that...\r\n */\r\ncontract Ownable {\r\n    address public _owner;\r\n    /**\r\n     * @dev The Ownable constructor sets the original `owner` of the contract to the sender\r\n     * account.\r\n     */\r\n    constructor() public {\r\n        _owner = msg.sender;\r\n    }\r\n\r\n\r\n    /**\r\n     * @dev Throws if called by any account other than the owner.\r\n     */\r\n    modifier onlyOwner() {\r\n        require(msg.sender == _owner);\r\n        _;\r\n    }\r\n}\r\n\r\n\r\ncontract Loonie is Ownable{\r\n\tusing SafeMath for uint256;\r\n\r\n    // Public variables of the token\r\n    string public name;\r\n    string public symbol;\r\n    uint8 public decimals = 18;\r\n    uint public chainStartTime;\r\n    uint public chainStartBlockNumber;\r\n    uint public stakeStartTime;\r\n    uint public stakeMinAge = 3 days;\r\n    uint public stakeMaxAge = 90 days;\r\n    uint public maxMintProofOfStake = 10**17;\r\n    // 18 decimals is the strongly suggested default, avoid changing it\r\n    uint256 public totalSupply;\r\n    uint256 public maxTotalSupply;\r\n    \r\n    struct transferInStruct{ // keeps track of individual transfers\r\n        uint128 amount;\r\n        uint64 time;\r\n    }\r\n\r\n    // This creates an array with all balanceOf\r\n    mapping (address => uint256) public balanceOf;\r\n    mapping (address => mapping (address => uint256)) public allowance;\r\n    mapping (address => transferInStruct[]) public transferIns;\r\n\r\n    // This generates a public event on the blockchain that will notify clients\r\n    event Transfer(address indexed from, address indexed to, uint256 value);\r\n    \r\n    // This generates a public event on the blockchain that will notify clients\r\n    event Approval(address indexed _owner, address indexed _spender, uint256 _value);\r\n\r\n    // This notifies clients about the amount burnt\r\n    event Burn(address indexed from, uint256 value);\r\n\r\n    // This notifies clients about the minted amount\r\n    event Mint(address indexed _address, uint _reward);\r\n\r\n    //This checks if there it's still possible to mine the token\r\n\tmodifier canPoSMint() {\r\n\t        require(totalSupply < maxTotalSupply);\r\n\t        _;\r\n\t    }\r\n    /**\r\n     * Constructor function\r\n     *\r\n     * Initializes contract with initial supply tokens to the creator of the contract\r\n     */\r\n    constructor(\r\n        uint256 initialSupply,\r\n        uint256 maxiTotalSupply,\r\n        string tokenName,\r\n        string tokenSymbol\r\n    ) public {\r\n        totalSupply = initialSupply.mul(10 ** uint256(decimals));  // Update total supply with the decimal amount\r\n        maxTotalSupply = maxiTotalSupply.mul(10 ** uint256(decimals)); // set the max total supply to ever exist\r\n        balanceOf[_owner] = totalSupply;                // Give the creator all initial tokens\r\n        name = tokenName;                                   // Set the name for display purposes\r\n        symbol = tokenSymbol;  \r\n        chainStartTime = block.timestamp; //Original Time\r\n        chainStartBlockNumber = getBlockNumber(); //Original Block\r\n\r\n                                    \r\n    }\r\n\r\n    /**\r\n     * Internal transfer, only can be called by this contract\r\n     */\r\n    function _transfer(address _from, address _to, uint _value) internal {\r\n        // Prevent transfer to 0x0 address. Use burn() instead\r\n        require(_to != 0x0);\r\n        // Check if the sender has enough\r\n        require(balanceOf[_from] >= _value);\r\n        // Check for overflows\r\n        require(balanceOf[_to].add(_value) >= balanceOf[_to]);\r\n        // Save this for an assertion in the future\r\n        //if(_from == _to) return mint();\r\n        uint previousBalanceOfbalanceOf = balanceOf[_from].add(balanceOf[_to]);\r\n        // Subtract from the sender\r\n        balanceOf[_from] = balanceOf[_from].sub(_value);\r\n        // Add the same to the recipient\r\n        balanceOf[_to] = balanceOf[_to].add(_value);\r\n        emit Transfer(_from, _to, _value);\r\n        // Asserts are used to use static analysis to find bugs in your code. They should never fail\r\n        assert(balanceOf[_from].add(balanceOf[_to]) == previousBalanceOfbalanceOf);\r\n    }\r\n\r\n    /**\r\n     * Transfer tokens\r\n     *\r\n     * Send `_value` tokens to `_to` from your account\r\n     *\r\n     * @param _to The address of the recipient\r\n     * @param _value the amount to send\r\n     */\r\n    function transfer(address _to, uint256 _value) public returns (bool success) {    \t\r\n        _transfer(msg.sender, _to, _value);\r\n        return true;\r\n    }\r\n    \r\n    /**\r\n     * Transfer tokens from other address\r\n     *\r\n     * Send `_value` tokens to `_to` on behalf of `_from`\r\n     *\r\n     * @param _from The address of the sender\r\n     * @param _to The address of the recipient\r\n     * @param _value the amount to send\r\n     */\r\n    function transferFrom(address _from, address _to, uint256 _value) public returns (bool success) {\r\n        \r\n        require(_value <= allowance[_from][msg.sender], \"You are not allowed to transfer that amount\");     // Check allowance\r\n        allowance[_from][msg.sender] = allowance[_from][msg.sender].sub(_value);\r\n        _transfer(_from, _to, _value);\r\n        return true;\r\n    }\r\n\r\n    /**\r\n     * Set allowance for other address\r\n     *\r\n     * Allows `_spender` to spend no more than `_value` tokens on your behalf\r\n     *\r\n     * @param _spender The address authorized to spend\r\n     * @param _value the max amount they can spend\r\n     */\r\n    function approve(address _spender, uint256 _value) public\r\n        returns (bool success) {\r\n            \r\n        allowance[msg.sender][_spender] = _value;\r\n        emit Approval(msg.sender, _spender, _value);\r\n        return true;\r\n    }\r\n\r\n    /**\r\n     * Set allowance for other address and notify\r\n     *\r\n     * Allows `_spender` to spend no more than `_value` tokens on your behalf, and then ping the contract about it\r\n     *\r\n     * @param _spender The address authorized to spend\r\n     * @param _value the max amount they can spend\r\n     * @param _extraData some extra information to send to the approved contract\r\n     */\r\n    function approveAndCall(address _spender, uint256 _value, bytes _extraData)\r\n        public\r\n        returns (bool success) {\r\n        \r\n        tokenRecipient spender = tokenRecipient(_spender);\r\n        if (approve(_spender, _value)) {\r\n            spender.receiveApproval(msg.sender, _value, this, _extraData);\r\n            return true;\r\n        }\r\n    }\r\n\r\n   \r\n    function mint() public canPoSMint returns (bool) {\r\n        if(balanceOf[msg.sender] <= 0) return false;\r\n        if(transferIns[msg.sender].length <= 0) return false;\r\n\r\n        uint reward = getProofOfStakeReward(msg.sender);\r\n        require(reward > 0, \"You don't have enough rewards\");\r\n\r\n        totalSupply = totalSupply.add(reward);\r\n        balanceOf[msg.sender] = balanceOf[msg.sender].add(reward);\r\n        delete transferIns[msg.sender];\r\n        transferIns[msg.sender].push(transferInStruct(uint128(balanceOf[msg.sender]),uint64(now)));\r\n\r\n        emit Mint(msg.sender, reward);\r\n        return true;\r\n    }\r\n\r\n    function getBlockNumber() public view returns (uint blockNumber) {\r\n        blockNumber = block.number.sub(chainStartBlockNumber);\r\n    }\r\n\r\n    function coinAge() public view returns (uint myCoinAge) {\r\n        myCoinAge = getCoinAge(msg.sender,now);\r\n    }\r\n\r\n    function annualInterest() public view returns(uint interest) {\r\n        uint _now = now;\r\n        interest = maxMintProofOfStake;\r\n        if((_now.sub(stakeStartTime)).div(365 days) == 0) {\r\n            interest = (770 * maxMintProofOfStake).div(100);\r\n        } else if((_now.sub(stakeStartTime)).div(365 days) == 1){\r\n            interest = (435 * maxMintProofOfStake).div(100);\r\n        }\r\n    }\r\n\r\n    function getProofOfStakeReward(address _address) internal view returns (uint) {\r\n        require((now >= stakeStartTime) && (stakeStartTime > 0) );\r\n\r\n        uint _now = now;\r\n        uint _coinAge = getCoinAge(_address, _now);\r\n        if(_coinAge <= 0) return 0;\r\n\r\n        uint interest = maxMintProofOfStake;\r\n\r\n        if((_now.sub(stakeStartTime)).div(365 days) == 0) {\r\n\r\n            interest = (770 * maxMintProofOfStake).div(100);\r\n        } else if((_now.sub(stakeStartTime)).div(365 days) == 1){\r\n\r\n            interest = (435 * maxMintProofOfStake).div(100);\r\n        }\r\n\r\n        return (_coinAge * interest).div(365 * (10**uint(decimals)));\r\n    }\r\n\r\n    function getCoinAge(address _address, uint _now) internal view returns (uint _coinAge) {\r\n        if(transferIns[_address].length <= 0) return 0;\r\n\r\n        for (uint i = 0; i < transferIns[_address].length; i++){\r\n            if( _now < uint(transferIns[_address][i].time).add(stakeMinAge) ) continue;\r\n\r\n            uint nCoinSeconds = _now.sub(uint(transferIns[_address][i].time));\r\n            if( nCoinSeconds > stakeMaxAge ) nCoinSeconds = stakeMaxAge;\r\n\r\n            _coinAge = _coinAge.add(uint(transferIns[_address][i].amount) * nCoinSeconds.div(1 days));\r\n        }\r\n    }\r\n\r\n    function ownerSetStakeStartTime(uint timestamp) public onlyOwner {\r\n        require((stakeStartTime <= 0) && (timestamp >= chainStartTime), \"The time is not correct\");\r\n        stakeStartTime = timestamp;\r\n    }\r\n\r\n \r\n    /**\r\n     * Destroy tokens\r\n     *\r\n     * Remove `_value` tokens from the system irreversibly\r\n     *\r\n     * @param _value the amount of money to burn\r\n     */\r\n    function burn(uint256 _value) public returns (bool success) {\r\n        \r\n        require(balanceOf[msg.sender] >= _value && _value > 0);   // Check if the sender has enough\r\n        balanceOf[msg.sender] = balanceOf[msg.sender].sub(_value);            // Subtract from the sender\r\n        totalSupply = totalSupply.sub(_value);                      // Updates totalSupply\r\n        emit Burn(msg.sender, _value);\r\n        return true;\r\n    }\r\n\r\n    /**\r\n     * Destroy tokens from other account\r\n     *\r\n     * Remove `_value` tokens from the system irreversibly on behalf of `_from`.\r\n     *\r\n     * @param _from the address of the sender\r\n     * @param _value the amount of money to burn\r\n     */\r\n    function burnFrom(address _from, uint256 _value) onlyOwner public returns (bool success) {\r\n        require(balanceOf[_from] >= _value);                // Check if the targeted balance is enough\r\n        require(_value <= allowance[_from][msg.sender]);    // Check allowance\r\n        balanceOf[_from] = balanceOf[_from].sub(_value);                         // Subtract from the targeted balance\r\n        allowance[_from][msg.sender] = allowance[_from][msg.sender].sub(_value);             // Subtract from the sender's allowance\r\n        totalSupply = totalSupply.sub(_value);                              // Update totalSupply\r\n        emit Burn(_from, _value);\r\n        return true;\r\n    }\r\n\r\n}\r\n\r\n",
  "sourcePath": "/mnt/c/Users/bradu/Desktop/Loonie/contracts/Loonie.sol",
  "compiler": {
    "name": "solc",
    "version": "0.4.24+commit.e67f0147.Emscripten.clang"
  },
  "schemaVersion": "2.0.1",
  "updatedAt": "2018-08-29T16:42:41.123Z"
}