{
  "contractName": "Loonie",
  "abi": [
    {
      "constant": true,
      "inputs": [],
      "name": "name",
      "outputs": [
        {
          "name": "",
          "type": "string"
        }
      ],
      "payable": false,
      "stateMutability": "view",
      "type": "function"
    },
    {
      "constant": true,
      "inputs": [],
      "name": "totalSupply",
      "outputs": [
        {
          "name": "",
          "type": "uint256"
        }
      ],
      "payable": false,
      "stateMutability": "view",
      "type": "function"
    },
    {
      "constant": true,
      "inputs": [],
      "name": "maxTotalSupply",
      "outputs": [
        {
          "name": "",
          "type": "uint256"
        }
      ],
      "payable": false,
      "stateMutability": "view",
      "type": "function"
    },
    {
      "constant": true,
      "inputs": [],
      "name": "decimals",
      "outputs": [
        {
          "name": "",
          "type": "uint8"
        }
      ],
      "payable": false,
      "stateMutability": "view",
      "type": "function"
    },
    {
      "constant": true,
      "inputs": [],
      "name": "standard",
      "outputs": [
        {
          "name": "",
          "type": "string"
        }
      ],
      "payable": false,
      "stateMutability": "view",
      "type": "function"
    },
    {
      "constant": true,
      "inputs": [],
      "name": "chainStartTime",
      "outputs": [
        {
          "name": "",
          "type": "uint256"
        }
      ],
      "payable": false,
      "stateMutability": "view",
      "type": "function"
    },
    {
      "constant": true,
      "inputs": [
        {
          "name": "",
          "type": "address"
        },
        {
          "name": "",
          "type": "uint256"
        }
      ],
      "name": "transferIns",
      "outputs": [
        {
          "name": "amount",
          "type": "uint128"
        },
        {
          "name": "time",
          "type": "uint64"
        }
      ],
      "payable": false,
      "stateMutability": "view",
      "type": "function"
    },
    {
      "constant": true,
      "inputs": [
        {
          "name": "",
          "type": "address"
        }
      ],
      "name": "balanceOf",
      "outputs": [
        {
          "name": "",
          "type": "uint256"
        }
      ],
      "payable": false,
      "stateMutability": "view",
      "type": "function"
    },
    {
      "constant": true,
      "inputs": [],
      "name": "stakeStartTime",
      "outputs": [
        {
          "name": "",
          "type": "uint256"
        }
      ],
      "payable": false,
      "stateMutability": "view",
      "type": "function"
    },
    {
      "constant": true,
      "inputs": [],
      "name": "symbol",
      "outputs": [
        {
          "name": "",
          "type": "string"
        }
      ],
      "payable": false,
      "stateMutability": "view",
      "type": "function"
    },
    {
      "constant": true,
      "inputs": [],
      "name": "_owner",
      "outputs": [
        {
          "name": "",
          "type": "address"
        }
      ],
      "payable": false,
      "stateMutability": "view",
      "type": "function"
    },
    {
      "constant": true,
      "inputs": [],
      "name": "stakeMinAge",
      "outputs": [
        {
          "name": "",
          "type": "uint256"
        }
      ],
      "payable": false,
      "stateMutability": "view",
      "type": "function"
    },
    {
      "constant": true,
      "inputs": [],
      "name": "chainStartBlockNumber",
      "outputs": [
        {
          "name": "",
          "type": "uint256"
        }
      ],
      "payable": false,
      "stateMutability": "view",
      "type": "function"
    },
    {
      "constant": true,
      "inputs": [],
      "name": "stakeMaxAge",
      "outputs": [
        {
          "name": "",
          "type": "uint256"
        }
      ],
      "payable": false,
      "stateMutability": "view",
      "type": "function"
    },
    {
      "constant": true,
      "inputs": [],
      "name": "maxMintProofOfStake",
      "outputs": [
        {
          "name": "",
          "type": "uint256"
        }
      ],
      "payable": false,
      "stateMutability": "view",
      "type": "function"
    },
    {
      "inputs": [
        {
          "name": "initialSupply",
          "type": "uint256"
        },
        {
          "name": "maxiTotalSupply",
          "type": "uint256"
        },
        {
          "name": "tokenName",
          "type": "string"
        },
        {
          "name": "tokenSymbol",
          "type": "string"
        }
      ],
      "payable": false,
      "stateMutability": "nonpayable",
      "type": "constructor"
    },
    {
      "anonymous": false,
      "inputs": [
        {
          "indexed": true,
          "name": "from",
          "type": "address"
        },
        {
          "indexed": true,
          "name": "to",
          "type": "address"
        },
        {
          "indexed": false,
          "name": "value",
          "type": "uint256"
        }
      ],
      "name": "Transfer",
      "type": "event"
    },
    {
      "anonymous": false,
      "inputs": [
        {
          "indexed": true,
          "name": "_owner",
          "type": "address"
        },
        {
          "indexed": true,
          "name": "_spender",
          "type": "address"
        },
        {
          "indexed": false,
          "name": "_value",
          "type": "uint256"
        }
      ],
      "name": "Approval",
      "type": "event"
    },
    {
      "anonymous": false,
      "inputs": [
        {
          "indexed": true,
          "name": "from",
          "type": "address"
        },
        {
          "indexed": false,
          "name": "value",
          "type": "uint256"
        }
      ],
      "name": "Burn",
      "type": "event"
    },
    {
      "anonymous": false,
      "inputs": [
        {
          "indexed": true,
          "name": "_address",
          "type": "address"
        },
        {
          "indexed": false,
          "name": "_reward",
          "type": "uint256"
        }
      ],
      "name": "Mint",
      "type": "event"
    },
    {
      "constant": false,
      "inputs": [
        {
          "name": "_to",
          "type": "address"
        },
        {
          "name": "_value",
          "type": "uint256"
        }
      ],
      "name": "transfer",
      "outputs": [
        {
          "name": "success",
          "type": "bool"
        }
      ],
      "payable": false,
      "stateMutability": "nonpayable",
      "type": "function"
    },
    {
      "constant": false,
      "inputs": [
        {
          "name": "_from",
          "type": "address"
        },
        {
          "name": "_to",
          "type": "address"
        },
        {
          "name": "_value",
          "type": "uint256"
        }
      ],
      "name": "transferFrom",
      "outputs": [
        {
          "name": "success",
          "type": "bool"
        }
      ],
      "payable": false,
      "stateMutability": "nonpayable",
      "type": "function"
    },
    {
      "constant": false,
      "inputs": [
        {
          "name": "_spender",
          "type": "address"
        },
        {
          "name": "_value",
          "type": "uint256"
        }
      ],
      "name": "approve",
      "outputs": [
        {
          "name": "success",
          "type": "bool"
        }
      ],
      "payable": false,
      "stateMutability": "nonpayable",
      "type": "function"
    },
    {
      "constant": false,
      "inputs": [
        {
          "name": "_spender",
          "type": "address"
        },
        {
          "name": "_value",
          "type": "uint256"
        },
        {
          "name": "_extraData",
          "type": "bytes"
        }
      ],
      "name": "approveAndCall",
      "outputs": [
        {
          "name": "success",
          "type": "bool"
        }
      ],
      "payable": false,
      "stateMutability": "nonpayable",
      "type": "function"
    },
    {
      "constant": true,
      "inputs": [
        {
          "name": "_owner",
          "type": "address"
        },
        {
          "name": "_spender",
          "type": "address"
        }
      ],
      "name": "allowance",
      "outputs": [
        {
          "name": "remaining",
          "type": "uint256"
        }
      ],
      "payable": false,
      "stateMutability": "view",
      "type": "function"
    },
    {
      "constant": false,
      "inputs": [],
      "name": "mint",
      "outputs": [
        {
          "name": "",
          "type": "bool"
        }
      ],
      "payable": false,
      "stateMutability": "nonpayable",
      "type": "function"
    },
    {
      "constant": true,
      "inputs": [],
      "name": "getBlockNumber",
      "outputs": [
        {
          "name": "blockNumber",
          "type": "uint256"
        }
      ],
      "payable": false,
      "stateMutability": "view",
      "type": "function"
    },
    {
      "constant": true,
      "inputs": [],
      "name": "coinAge",
      "outputs": [
        {
          "name": "myCoinAge",
          "type": "uint256"
        }
      ],
      "payable": false,
      "stateMutability": "view",
      "type": "function"
    },
    {
      "constant": true,
      "inputs": [],
      "name": "annualInterest",
      "outputs": [
        {
          "name": "interest",
          "type": "uint256"
        }
      ],
      "payable": false,
      "stateMutability": "view",
      "type": "function"
    },
    {
      "constant": false,
      "inputs": [
        {
          "name": "timestamp",
          "type": "uint256"
        }
      ],
      "name": "ownerSetStakeStartTime",
      "outputs": [],
      "payable": false,
      "stateMutability": "nonpayable",
      "type": "function"
    },
    {
      "constant": false,
      "inputs": [
        {
          "name": "_recipients",
          "type": "address[]"
        },
        {
          "name": "_values",
          "type": "uint256[]"
        }
      ],
      "name": "batchTransfer",
      "outputs": [
        {
          "name": "",
          "type": "bool"
        }
      ],
      "payable": false,
      "stateMutability": "nonpayable",
      "type": "function"
    },
    {
      "constant": false,
      "inputs": [
        {
          "name": "_value",
          "type": "uint256"
        }
      ],
      "name": "burn",
      "outputs": [
        {
          "name": "success",
          "type": "bool"
        }
      ],
      "payable": false,
      "stateMutability": "nonpayable",
      "type": "function"
    },
    {
      "constant": false,
      "inputs": [
        {
          "name": "_from",
          "type": "address"
        },
        {
          "name": "_value",
          "type": "uint256"
        }
      ],
      "name": "burnFrom",
      "outputs": [
        {
          "name": "success",
          "type": "bool"
        }
      ],
      "payable": false,
      "stateMutability": "nonpayable",
      "type": "function"
    }
  ],
  "bytecode": "0x60806040526040805190810160405280600b81526020017f4c6f6f6e69652076312e30000000000000000000000000000000000000000000815250600390805190602001906200005192919062000288565b506012600460006101000a81548160ff021916908360ff1602179055506203f4806008556276a70060095567016345785d8a0000600a553480156200009557600080fd5b5060405162002e5238038062002e5283398101806040528101908080519060200190929190805190602001909291908051820192919060200180518201929190505050336000806101000a81548173ffffffffffffffffffffffffffffffffffffffff021916908373ffffffffffffffffffffffffffffffffffffffff16021790555062000150600460009054906101000a900460ff1660ff16600a0a85620002466401000000000262002aa1179091906401000000009004565b600b819055506200018e600460009054906101000a900460ff1660ff16600a0a84620002466401000000000262002aa1179091906401000000009004565b600c81905550600b54600d60008060009054906101000a900473ffffffffffffffffffffffffffffffffffffffff1673ffffffffffffffffffffffffffffffffffffffff1673ffffffffffffffffffffffffffffffffffffffff1681526020019081526020016000208190555081600190805190602001906200021392919062000288565b5080600290805190602001906200022c92919062000288565b504260058190555060006006819055505050505062000337565b60008060008414156200025d576000915062000281565b82840290508284828115156200026f57fe5b041415156200027d57600080fd5b8091505b5092915050565b828054600181600116156101000203166002900490600052602060002090601f016020900481019282601f10620002cb57805160ff1916838001178555620002fc565b82800160010185558215620002fc579182015b82811115620002fb578251825591602001919060010190620002de565b5b5090506200030b91906200030f565b5090565b6200033491905b808211156200033057600081600090555060010162000316565b5090565b90565b612b0b80620003476000396000f30060806040526004361061016a576000357c0100000000000000000000000000000000000000000000000000000000900463ffffffff16806306fdde031461016f578063095ea7b3146101ff5780631249c58b1461026457806318160ddd146102935780631e1b13c0146102be57806323b872dd146102e95780632a9edf6f1461036e5780632ab4d0521461039b578063313ce567146103c657806342966c68146103f757806342cbb15c1461043c5780635a3b7e42146104675780635b054f9b146104f757806365476ea31461052257806370a08231146105c25780637419f1901461061957806379cc67901461064457806388d695b2146106a957806395d89b411461076a578063a9059cbb146107fa578063b2552fc41461085f578063b2bdfa7b1461088a578063cae9ca51146108e1578063cbd8877e1461098c578063cd474b04146109b7578063dd62ed3e146109e2578063e1c3bac614610a59578063f2bb5ce114610a84575b600080fd5b34801561017b57600080fd5b50610184610aaf565b6040518080602001828103825283818151815260200191508051906020019080838360005b838110156101c45780820151818401526020810190506101a9565b50505050905090810190601f1680156101f15780820380516001836020036101000a031916815260200191505b509250505060405180910390f35b34801561020b57600080fd5b5061024a600480360381019080803573ffffffffffffffffffffffffffffffffffffffff16906020019092919080359060200190929190505050610b4d565b604051808215151515815260200191505060405180910390f35b34801561027057600080fd5b50610279610c3f565b604051808215151515815260200191505060405180910390f35b34801561029f57600080fd5b506102a8610fb2565b6040518082815260200191505060405180910390f35b3480156102ca57600080fd5b506102d3610fb8565b6040518082815260200191505060405180910390f35b3480156102f557600080fd5b50610354600480360381019080803573ffffffffffffffffffffffffffffffffffffffff169060200190929190803573ffffffffffffffffffffffffffffffffffffffff16906020019092919080359060200190929190505050610fc9565b604051808215151515815260200191505060405180910390f35b34801561037a57600080fd5b506103996004803603810190808035906020019092919050505061117b565b005b3480156103a757600080fd5b506103b0611200565b6040518082815260200191505060405180910390f35b3480156103d257600080fd5b506103db611206565b604051808260ff1660ff16815260200191505060405180910390f35b34801561040357600080fd5b5061042260048036038101908080359060200190929190505050611219565b604051808215151515815260200191505060405180910390f35b34801561044857600080fd5b5061045161137c565b6040518082815260200191505060405180910390f35b34801561047357600080fd5b5061047c611398565b6040518080602001828103825283818151815260200191508051906020019080838360005b838110156104bc5780820151818401526020810190506104a1565b50505050905090810190601f1680156104e95780820380516001836020036101000a031916815260200191505b509250505060405180910390f35b34801561050357600080fd5b5061050c611436565b6040518082815260200191505060405180910390f35b34801561052e57600080fd5b5061056d600480360381019080803573ffffffffffffffffffffffffffffffffffffffff1690602001909291908035906020019092919050505061143c565b60405180836fffffffffffffffffffffffffffffffff166fffffffffffffffffffffffffffffffff1681526020018267ffffffffffffffff1667ffffffffffffffff1681526020019250505060405180910390f35b3480156105ce57600080fd5b50610603600480360381019080803573ffffffffffffffffffffffffffffffffffffffff1690602001909291905050506114a8565b6040518082815260200191505060405180910390f35b34801561062557600080fd5b5061062e6114c0565b6040518082815260200191505060405180910390f35b34801561065057600080fd5b5061068f600480360381019080803573ffffffffffffffffffffffffffffffffffffffff169060200190929190803590602001909291905050506114c6565b604051808215151515815260200191505060405180910390f35b3480156106b557600080fd5b5061075060048036038101908080359060200190820180359060200190808060200260200160405190810160405280939291908181526020018383602002808284378201915050505050509192919290803590602001908201803590602001908080602002602001604051908101604052809392919081815260200183836020028082843782019150505050505091929192905050506117b8565b604051808215151515815260200191505060405180910390f35b34801561077657600080fd5b5061077f611e5c565b6040518080602001828103825283818151815260200191508051906020019080838360005b838110156107bf5780820151818401526020810190506107a4565b50505050905090810190601f1680156107ec5780820380516001836020036101000a031916815260200191505b509250505060405180910390f35b34801561080657600080fd5b50610845600480360381019080803573ffffffffffffffffffffffffffffffffffffffff16906020019092919080359060200190929190505050611efa565b604051808215151515815260200191505060405180910390f35b34801561086b57600080fd5b50610874611f11565b6040518082815260200191505060405180910390f35b34801561089657600080fd5b5061089f611fc5565b604051808273ffffffffffffffffffffffffffffffffffffffff1673ffffffffffffffffffffffffffffffffffffffff16815260200191505060405180910390f35b3480156108ed57600080fd5b50610972600480360381019080803573ffffffffffffffffffffffffffffffffffffffff16906020019092919080359060200190929190803590602001908201803590602001908080601f0160208091040260200160405190810160405280939291908181526020018383808284378201915050505050509192919290505050611fea565b604051808215151515815260200191505060405180910390f35b34801561099857600080fd5b506109a161216d565b6040518082815260200191505060405180910390f35b3480156109c357600080fd5b506109cc612173565b6040518082815260200191505060405180910390f35b3480156109ee57600080fd5b50610a43600480360381019080803573ffffffffffffffffffffffffffffffffffffffff169060200190929190803573ffffffffffffffffffffffffffffffffffffffff169060200190929190505050612179565b6040518082815260200191505060405180910390f35b348015610a6557600080fd5b50610a6e612200565b6040518082815260200191505060405180910390f35b348015610a9057600080fd5b50610a99612206565b6040518082815260200191505060405180910390f35b60018054600181600116156101000203166002900480601f016020809104026020016040519081016040528092919081815260200182805460018160011615610100020316600290048015610b455780601f10610b1a57610100808354040283529160200191610b45565b820191906000526020600020905b815481529060010190602001808311610b2857829003601f168201915b505050505081565b600081600e60003373ffffffffffffffffffffffffffffffffffffffff1673ffffffffffffffffffffffffffffffffffffffff16815260200190815260200160002060008573ffffffffffffffffffffffffffffffffffffffff1673ffffffffffffffffffffffffffffffffffffffff168152602001908152602001600020819055508273ffffffffffffffffffffffffffffffffffffffff163373ffffffffffffffffffffffffffffffffffffffff167f8c5be1e5ebec7d5bd14f71427d1e84f3dd0314c0f7b2291e5b200ac8c7c3b925846040518082815260200191505060405180910390a36001905092915050565b600080600c54600b54101515610c5457600080fd5b6000600d60003373ffffffffffffffffffffffffffffffffffffffff1673ffffffffffffffffffffffffffffffffffffffff16815260200190815260200160002054111515610ca65760009150610fae565b6000600f60003373ffffffffffffffffffffffffffffffffffffffff1673ffffffffffffffffffffffffffffffffffffffff16815260200190815260200160002080549050111515610cfb5760009150610fae565b610d043361220c565b9050600081111515610d195760009150610fae565b610d2e81600b5461233a90919063ffffffff16565b600b81905550610d8681600d60003373ffffffffffffffffffffffffffffffffffffffff1673ffffffffffffffffffffffffffffffffffffffff1681526020019081526020016000205461233a90919063ffffffff16565b600d60003373ffffffffffffffffffffffffffffffffffffffff1673ffffffffffffffffffffffffffffffffffffffff16815260200190815260200160002081905550600f60003373ffffffffffffffffffffffffffffffffffffffff1673ffffffffffffffffffffffffffffffffffffffff1681526020019081526020016000206000610e149190612a23565b600f60003373ffffffffffffffffffffffffffffffffffffffff1673ffffffffffffffffffffffffffffffffffffffff1681526020019081526020016000206040805190810160405280600d60003373ffffffffffffffffffffffffffffffffffffffff1673ffffffffffffffffffffffffffffffffffffffff168152602001908152602001600020546fffffffffffffffffffffffffffffffff1681526020014267ffffffffffffffff1681525090806001815401808255809150509060018203906000526020600020016000909192909190915060008201518160000160006101000a8154816fffffffffffffffffffffffffffffffff02191690836fffffffffffffffffffffffffffffffff16021790555060208201518160000160106101000a81548167ffffffffffffffff021916908367ffffffffffffffff1602179055505050503373ffffffffffffffffffffffffffffffffffffffff167f0f6798a560793a54c3bcfe86a93cde1e73087d944c0ea20544137d4121396885826040518082815260200191505060405180910390a2600191505b5090565b600b5481565b6000610fc4334261235b565b905090565b6000600e60008573ffffffffffffffffffffffffffffffffffffffff1673ffffffffffffffffffffffffffffffffffffffff16815260200190815260200160002060003373ffffffffffffffffffffffffffffffffffffffff1673ffffffffffffffffffffffffffffffffffffffff16815260200190815260200160002054821115151561105657600080fd5b6110e582600e60008773ffffffffffffffffffffffffffffffffffffffff1673ffffffffffffffffffffffffffffffffffffffff16815260200190815260200160002060003373ffffffffffffffffffffffffffffffffffffffff1673ffffffffffffffffffffffffffffffffffffffff1681526020019081526020016000205461260190919063ffffffff16565b600e60008673ffffffffffffffffffffffffffffffffffffffff1673ffffffffffffffffffffffffffffffffffffffff16815260200190815260200160002060003373ffffffffffffffffffffffffffffffffffffffff1673ffffffffffffffffffffffffffffffffffffffff16815260200190815260200160002081905550611170848484612622565b600190509392505050565b6000809054906101000a900473ffffffffffffffffffffffffffffffffffffffff1673ffffffffffffffffffffffffffffffffffffffff163373ffffffffffffffffffffffffffffffffffffffff161415156111d657600080fd5b6000600754111580156111eb57506005548110155b15156111f657600080fd5b8060078190555050565b600c5481565b600460009054906101000a900460ff1681565b600081600d60003373ffffffffffffffffffffffffffffffffffffffff1673ffffffffffffffffffffffffffffffffffffffff168152602001908152602001600020541015801561126a5750600082115b151561127557600080fd5b6112c782600d60003373ffffffffffffffffffffffffffffffffffffffff1673ffffffffffffffffffffffffffffffffffffffff1681526020019081526020016000205461260190919063ffffffff16565b600d60003373ffffffffffffffffffffffffffffffffffffffff1673ffffffffffffffffffffffffffffffffffffffff1681526020019081526020016000208190555061131f82600b5461260190919063ffffffff16565b600b819055503373ffffffffffffffffffffffffffffffffffffffff167fcc16f5dbb4873280815c1ee09dbd06736cffcc184412cf7a71a0fdb75d397ca5836040518082815260200191505060405180910390a260019050919050565b60006113936006544361260190919063ffffffff16565b905090565b60038054600181600116156101000203166002900480601f01602080910402602001604051908101604052809291908181526020018280546001816001161561010002031660029004801561142e5780601f106114035761010080835404028352916020019161142e565b820191906000526020600020905b81548152906001019060200180831161141157829003601f168201915b505050505081565b60055481565b600f6020528160005260406000208181548110151561145757fe5b90600052602060002001600091509150508060000160009054906101000a90046fffffffffffffffffffffffffffffffff16908060000160109054906101000a900467ffffffffffffffff16905082565b600d6020528060005260406000206000915090505481565b60075481565b600081600d60008573ffffffffffffffffffffffffffffffffffffffff1673ffffffffffffffffffffffffffffffffffffffff168152602001908152602001600020541015151561151657600080fd5b600e60008473ffffffffffffffffffffffffffffffffffffffff1673ffffffffffffffffffffffffffffffffffffffff16815260200190815260200160002060003373ffffffffffffffffffffffffffffffffffffffff1673ffffffffffffffffffffffffffffffffffffffff1681526020019081526020016000205482111515156115a157600080fd5b6115f382600d60008673ffffffffffffffffffffffffffffffffffffffff1673ffffffffffffffffffffffffffffffffffffffff1681526020019081526020016000205461260190919063ffffffff16565b600d60008573ffffffffffffffffffffffffffffffffffffffff1673ffffffffffffffffffffffffffffffffffffffff168152602001908152602001600020819055506116c582600e60008673ffffffffffffffffffffffffffffffffffffffff1673ffffffffffffffffffffffffffffffffffffffff16815260200190815260200160002060003373ffffffffffffffffffffffffffffffffffffffff1673ffffffffffffffffffffffffffffffffffffffff1681526020019081526020016000205461260190919063ffffffff16565b600e60008573ffffffffffffffffffffffffffffffffffffffff1673ffffffffffffffffffffffffffffffffffffffff16815260200190815260200160002060003373ffffffffffffffffffffffffffffffffffffffff1673ffffffffffffffffffffffffffffffffffffffff1681526020019081526020016000208190555061175a82600b5461260190919063ffffffff16565b600b819055508273ffffffffffffffffffffffffffffffffffffffff167fcc16f5dbb4873280815c1ee09dbd06736cffcc184412cf7a71a0fdb75d397ca5836040518082815260200191505060405180910390a26001905092915050565b60008060008060008060009054906101000a900473ffffffffffffffffffffffffffffffffffffffff1673ffffffffffffffffffffffffffffffffffffffff163373ffffffffffffffffffffffffffffffffffffffff1614151561181b57600080fd5b6000875111801561182d575085518751145b151561183857600080fd5b60009350600092505b855183101561188357611874868481518110151561185b57fe5b906020019060200201518561233a90919063ffffffff16565b93508280600101935050611841565b600d60003373ffffffffffffffffffffffffffffffffffffffff1673ffffffffffffffffffffffffffffffffffffffff1681526020019081526020016000205484111515156118d157600080fd5b429150600090505b8651811015611b925761196286828151811015156118f357fe5b90602001906020020151600d60008a8581518110151561190f57fe5b9060200190602002015173ffffffffffffffffffffffffffffffffffffffff1673ffffffffffffffffffffffffffffffffffffffff1681526020019081526020016000205461233a90919063ffffffff16565b600d6000898481518110151561197457fe5b9060200190602002015173ffffffffffffffffffffffffffffffffffffffff1673ffffffffffffffffffffffffffffffffffffffff16815260200190815260200160002081905550600f600088838151811015156119ce57fe5b9060200190602002015173ffffffffffffffffffffffffffffffffffffffff1673ffffffffffffffffffffffffffffffffffffffff16815260200190815260200160002060408051908101604052808884815181101515611a2b57fe5b906020019060200201516fffffffffffffffffffffffffffffffff1681526020018467ffffffffffffffff1681525090806001815401808255809150509060018203906000526020600020016000909192909190915060008201518160000160006101000a8154816fffffffffffffffffffffffffffffffff02191690836fffffffffffffffffffffffffffffffff16021790555060208201518160000160106101000a81548167ffffffffffffffff021916908367ffffffffffffffff1602179055505050508681815181101515611b0057fe5b9060200190602002015173ffffffffffffffffffffffffffffffffffffffff163373ffffffffffffffffffffffffffffffffffffffff167fddf252ad1be2c89b69c2b068fc378daa952ba7f163c4a11628f55a4df523b3ef8884815181101515611b6657fe5b906020019060200201516040518082815260200191505060405180910390a380806001019150506118d9565b611be484600d60003373ffffffffffffffffffffffffffffffffffffffff1673ffffffffffffffffffffffffffffffffffffffff1681526020019081526020016000205461260190919063ffffffff16565b600d60003373ffffffffffffffffffffffffffffffffffffffff1673ffffffffffffffffffffffffffffffffffffffff168152602001908152602001600020819055506000600f60003373ffffffffffffffffffffffffffffffffffffffff1673ffffffffffffffffffffffffffffffffffffffff168152602001908152602001600020805490501115611cbe57600f60003373ffffffffffffffffffffffffffffffffffffffff1673ffffffffffffffffffffffffffffffffffffffff1681526020019081526020016000206000611cbd9190612a23565b5b6000600d60003373ffffffffffffffffffffffffffffffffffffffff1673ffffffffffffffffffffffffffffffffffffffff168152602001908152602001600020541115611e4e57600f60003373ffffffffffffffffffffffffffffffffffffffff1673ffffffffffffffffffffffffffffffffffffffff1681526020019081526020016000206040805190810160405280600d60003373ffffffffffffffffffffffffffffffffffffffff1673ffffffffffffffffffffffffffffffffffffffff168152602001908152602001600020546fffffffffffffffffffffffffffffffff1681526020018467ffffffffffffffff1681525090806001815401808255809150509060018203906000526020600020016000909192909190915060008201518160000160006101000a8154816fffffffffffffffffffffffffffffffff02191690836fffffffffffffffffffffffffffffffff16021790555060208201518160000160106101000a81548167ffffffffffffffff021916908367ffffffffffffffff1602179055505050505b600194505050505092915050565b60028054600181600116156101000203166002900480601f016020809104026020016040519081016040528092919081815260200182805460018160011615610100020316600290048015611ef25780601f10611ec757610100808354040283529160200191611ef2565b820191906000526020600020905b815481529060010190602001808311611ed557829003601f168201915b505050505081565b6000611f07338484612622565b6001905092915050565b600080429050600a5491506000611f496301e13380611f3b6007548561260190919063ffffffff16565b6129f990919063ffffffff16565b1415611f7057611f696064600a54610302026129f990919063ffffffff16565b9150611fc1565b6001611f9d6301e13380611f8f6007548561260190919063ffffffff16565b6129f990919063ffffffff16565b1415611fc057611fbd6064600a546101b3026129f990919063ffffffff16565b91505b5b5090565b6000809054906101000a900473ffffffffffffffffffffffffffffffffffffffff1681565b600080849050611ffa8585610b4d565b15612164578073ffffffffffffffffffffffffffffffffffffffff16638f4ffcb1338630876040518563ffffffff167c0100000000000000000000000000000000000000000000000000000000028152600401808573ffffffffffffffffffffffffffffffffffffffff1673ffffffffffffffffffffffffffffffffffffffff1681526020018481526020018373ffffffffffffffffffffffffffffffffffffffff1673ffffffffffffffffffffffffffffffffffffffff16815260200180602001828103825283818151815260200191508051906020019080838360005b838110156120f45780820151818401526020810190506120d9565b50505050905090810190601f1680156121215780820380516001836020036101000a031916815260200191505b5095505050505050600060405180830381600087803b15801561214357600080fd5b505af1158015612157573d6000803e3d6000fd5b5050505060019150612165565b5b509392505050565b60085481565b60065481565b6000600e60008473ffffffffffffffffffffffffffffffffffffffff1673ffffffffffffffffffffffffffffffffffffffff16815260200190815260200160002060008373ffffffffffffffffffffffffffffffffffffffff1673ffffffffffffffffffffffffffffffffffffffff16815260200190815260200160002054905092915050565b60095481565b600a5481565b600080600080600754421015801561222657506000600754115b151561223157600080fd5b42925061223e858461235b565b91506000821115156122535760009350612332565b600a54905060006122856301e133806122776007548761260190919063ffffffff16565b6129f990919063ffffffff16565b14156122ac576122a56064600a54610302026129f990919063ffffffff16565b90506122fd565b60016122d96301e133806122cb6007548761260190919063ffffffff16565b6129f990919063ffffffff16565b14156122fc576122f96064600a546101b3026129f990919063ffffffff16565b90505b5b61232f600460009054906101000a900460ff16600a0a60ff1661016d0261ffff168284026129f990919063ffffffff16565b93505b505050919050565b600080828401905083811015151561235157600080fd5b8091505092915050565b600080600080600f60008773ffffffffffffffffffffffffffffffffffffffff1673ffffffffffffffffffffffffffffffffffffffff168152602001908152602001600020805490501115156123b457600092506125f9565b600091505b600f60008673ffffffffffffffffffffffffffffffffffffffff1673ffffffffffffffffffffffffffffffffffffffff168152602001908152602001600020805490508210156125f85761248f600854600f60008873ffffffffffffffffffffffffffffffffffffffff1673ffffffffffffffffffffffffffffffffffffffff1681526020019081526020016000208481548110151561245557fe5b9060005260206000200160000160109054906101000a900467ffffffffffffffff1667ffffffffffffffff1661233a90919063ffffffff16565b84101561249b576125eb565b612525600f60008773ffffffffffffffffffffffffffffffffffffffff1673ffffffffffffffffffffffffffffffffffffffff168152602001908152602001600020838154811015156124ea57fe5b9060005260206000200160000160109054906101000a900467ffffffffffffffff1667ffffffffffffffff168561260190919063ffffffff16565b90506009548111156125375760095490505b6125e861255062015180836129f990919063ffffffff16565b600f60008873ffffffffffffffffffffffffffffffffffffffff1673ffffffffffffffffffffffffffffffffffffffff1681526020019081526020016000208481548110151561259c57fe5b9060005260206000200160000160009054906101000a90046fffffffffffffffffffffffffffffffff166fffffffffffffffffffffffffffffffff16028461233a90919063ffffffff16565b92505b81806001019250506123b9565b5b505092915050565b60008083831115151561261357600080fd5b82840390508091505092915050565b6000808373ffffffffffffffffffffffffffffffffffffffff161415151561264957600080fd5b81600d60008673ffffffffffffffffffffffffffffffffffffffff1673ffffffffffffffffffffffffffffffffffffffff168152602001908152602001600020541015151561269757600080fd5b600d60008473ffffffffffffffffffffffffffffffffffffffff1673ffffffffffffffffffffffffffffffffffffffff1681526020019081526020016000205461272983600d60008773ffffffffffffffffffffffffffffffffffffffff1673ffffffffffffffffffffffffffffffffffffffff1681526020019081526020016000205461233a90919063ffffffff16565b1015151561273657600080fd5b6127c7600d60008573ffffffffffffffffffffffffffffffffffffffff1673ffffffffffffffffffffffffffffffffffffffff16815260200190815260200160002054600d60008773ffffffffffffffffffffffffffffffffffffffff1673ffffffffffffffffffffffffffffffffffffffff1681526020019081526020016000205461233a90919063ffffffff16565b905061281b82600d60008773ffffffffffffffffffffffffffffffffffffffff1673ffffffffffffffffffffffffffffffffffffffff1681526020019081526020016000205461260190919063ffffffff16565b600d60008673ffffffffffffffffffffffffffffffffffffffff1673ffffffffffffffffffffffffffffffffffffffff168152602001908152602001600020819055506128b082600d60008673ffffffffffffffffffffffffffffffffffffffff1673ffffffffffffffffffffffffffffffffffffffff1681526020019081526020016000205461233a90919063ffffffff16565b600d60008573ffffffffffffffffffffffffffffffffffffffff1673ffffffffffffffffffffffffffffffffffffffff168152602001908152602001600020819055508273ffffffffffffffffffffffffffffffffffffffff168473ffffffffffffffffffffffffffffffffffffffff167fddf252ad1be2c89b69c2b068fc378daa952ba7f163c4a11628f55a4df523b3ef846040518082815260200191505060405180910390a3806129ea600d60008673ffffffffffffffffffffffffffffffffffffffff1673ffffffffffffffffffffffffffffffffffffffff16815260200190815260200160002054600d60008873ffffffffffffffffffffffffffffffffffffffff1673ffffffffffffffffffffffffffffffffffffffff1681526020019081526020016000205461233a90919063ffffffff16565b1415156129f357fe5b50505050565b600080600083111515612a0b57600080fd5b8284811515612a1657fe5b0490508091505092915050565b5080546000825590600052602060002090810190612a419190612a44565b50565b612a9e91905b80821115612a9a57600080820160006101000a8154906fffffffffffffffffffffffffffffffff02191690556000820160106101000a81549067ffffffffffffffff021916905550600101612a4a565b5090565b90565b6000806000841415612ab65760009150612ad8565b8284029050828482811515612ac757fe5b04141515612ad457600080fd5b8091505b50929150505600a165627a7a723058209a18d55cf173570975f1e9c4198a5c9931f2dfd33be895412adfea5d3963f3420029",
  "source": "pragma solidity ^0.4.19;\r\n\r\n/**\r\n * @title SafeMath\r\n * @dev Math operations with safety checks that revert on error\r\n */\r\nlibrary SafeMath {\r\n\r\n  /**\r\n  * @dev Multiplies two numbers, reverts on overflow.\r\n  */\r\n  function mul(uint256 _a, uint256 _b) internal pure returns (uint256) {\r\n    // Gas optimization: this is cheaper than requiring 'a' not being zero, but the\r\n    // benefit is lost if 'b' is also tested.\r\n    // See: https://github.com/OpenZeppelin/openzeppelin-solidity/pull/522\r\n    if (_a == 0) {\r\n      return 0;\r\n    }\r\n\r\n    uint256 c = _a * _b;\r\n    require(c / _a == _b);\r\n\r\n    return c;\r\n  }\r\n\r\n  /**\r\n  * @dev Integer division of two numbers truncating the quotient, reverts on division by zero.\r\n  */\r\n  function div(uint256 _a, uint256 _b) internal pure returns (uint256) {\r\n    require(_b > 0); // Solidity only automatically asserts when dividing by 0\r\n    uint256 c = _a / _b;\r\n    // assert(_a == _b * c + _a % _b); // There is no case in which this doesn't hold\r\n\r\n    return c;\r\n  }\r\n\r\n  /**\r\n  * @dev Subtracts two numbers, reverts on overflow (i.e. if subtrahend is greater than minuend).\r\n  */\r\n  function sub(uint256 _a, uint256 _b) internal pure returns (uint256) {\r\n    require(_b <= _a);\r\n    uint256 c = _a - _b;\r\n\r\n    return c;\r\n  }\r\n\r\n  /**\r\n  * @dev Adds two numbers, reverts on overflow.\r\n  */\r\n  function add(uint256 _a, uint256 _b) internal pure returns (uint256) {\r\n    uint256 c = _a + _b;\r\n    require(c >= _a);\r\n\r\n    return c;\r\n  }\r\n\r\n  /**\r\n  * @dev Divides two numbers and returns the remainder (unsigned integer modulo),\r\n  * reverts when dividing by zero.\r\n  */\r\n  function mod(uint256 a, uint256 b) internal pure returns (uint256) {\r\n    require(b != 0);\r\n    return a % b;\r\n  }\r\n}\r\n\r\ninterface tokenRecipient { function receiveApproval(address _from, uint256 _value, address _token, bytes _extraData) external; }\r\n/**\r\n * The Ownable contract does this and that...\r\n */\r\ncontract Ownable {\r\n\taddress public _owner;\r\n\r\n\r\n    /**\r\n     * @dev The Ownable constructor sets the original `owner` of the contract to the sender\r\n     * account.\r\n     */\r\n    constructor() public {\r\n        _owner = msg.sender;\r\n    }\r\n\r\n\r\n    /**\r\n     * @dev Throws if called by any account other than the owner.\r\n     */\r\n    modifier onlyOwner() {\r\n        require(msg.sender == _owner);\r\n        _;\r\n    }\r\n}\r\n\r\n\r\ncontract Loonie is Ownable{\r\n\tusing SafeMath for uint256;\r\n\r\n    // Public variables of the token\r\n    string public name;\r\n    string public symbol;\r\n    string public standard = \"Loonie v1.0\";\r\n    uint8 public decimals = 18;\r\n    uint public chainStartTime;\r\n    uint public chainStartBlockNumber;\r\n    uint public stakeStartTime;\r\n    uint public stakeMinAge = 3 days;\r\n    uint public stakeMaxAge = 90 days;\r\n    uint public maxMintProofOfStake = 10**17;\r\n    // 18 decimals is the strongly suggested default, avoid changing it\r\n    uint256 public totalSupply;\r\n    uint256 public maxTotalSupply;\r\n    \r\n    struct transferInStruct{ // keeps track of individual transfers\r\n        uint128 amount;\r\n        uint64 time;\r\n    }\r\n\r\n    // This creates an array with all balanceOf\r\n    mapping (address => uint256) public balanceOf;\r\n    mapping (address => mapping (address => uint256)) public allowance;\r\n    mapping (address => transferInStruct[]) public transferIns;\r\n\r\n    // This generates a public event on the blockchain that will notify clients\r\n    event Transfer(address indexed from, address indexed to, uint256 value);\r\n    \r\n    // This generates a public event on the blockchain that will notify clients\r\n    event Approval(address indexed _owner, address indexed _spender, uint256 _value);\r\n\r\n    // This notifies clients about the amount burnt\r\n    event Burn(address indexed from, uint256 value);\r\n\r\n    // This notifies clients about the minted amount\r\n    event Mint(address indexed _address, uint _reward);\r\n\r\n    //This checks if there it's still possible to mine the token\r\n\tmodifier canPoSMint() {\r\n\t        require(totalSupply < maxTotalSupply);\r\n\t        _;\r\n\t    }\r\n    /**\r\n     * Constructor function\r\n     *\r\n     * Initializes contract with initial supply tokens to the creator of the contract\r\n     */\r\n    constructor(\r\n        uint256 initialSupply,\r\n        uint256 maxiTotalSupply,\r\n        string tokenName,\r\n        string tokenSymbol\r\n    ) public {\r\n        totalSupply = initialSupply.mul(10 ** uint256(decimals));  // Update total supply with the decimal amount\r\n        maxTotalSupply = maxiTotalSupply.mul(10 ** uint256(decimals)); // set the max total supply to ever exist\r\n        balanceOf[_owner] = totalSupply;                // Give the creator all initial tokens\r\n        name = tokenName;                                   // Set the name for display purposes\r\n        symbol = tokenSymbol;  \r\n        chainStartTime = now; //Original Time\r\n        chainStartBlockNumber = 0; //Original Block\r\n\r\n                                    \r\n    }\r\n\r\n    /**\r\n     * Internal transfer, only can be called by this contract\r\n     */\r\n    function _transfer(address _from, address _to, uint _value) internal {\r\n        // Prevent transfer to 0x0 address. Use burn() instead\r\n        require(_to != 0x0);\r\n        // Check if the sender has enough\r\n        require(balanceOf[_from] >= _value);\r\n        // Check for overflows\r\n        require(balanceOf[_to].add(_value) >= balanceOf[_to]);\r\n        // Save this for an assertion in the future\r\n        //if(_from == _to) return mint();\r\n        uint previousBalanceOfbalanceOf = balanceOf[_from].add(balanceOf[_to]);\r\n        // Subtract from the sender\r\n        balanceOf[_from] = balanceOf[_from].sub(_value);\r\n        // Add the same to the recipient\r\n        balanceOf[_to] = balanceOf[_to].add(_value);\r\n        emit Transfer(_from, _to, _value);\r\n        // Asserts are used to use static analysis to find bugs in your code. They should never fail\r\n        assert(balanceOf[_from].add(balanceOf[_to]) == previousBalanceOfbalanceOf);\r\n    }\r\n\r\n    /**\r\n     * Transfer tokens\r\n     *\r\n     * Send `_value` tokens to `_to` from your account\r\n     *\r\n     * @param _to The address of the recipient\r\n     * @param _value the amount to send\r\n     */\r\n    function transfer(address _to, uint256 _value) public returns (bool success) {    \t\r\n        _transfer(msg.sender, _to, _value);\r\n        return true;\r\n    }\r\n    \r\n    /**\r\n     * Transfer tokens from other address\r\n     *\r\n     * Send `_value` tokens to `_to` on behalf of `_from`\r\n     *\r\n     * @param _from The address of the sender\r\n     * @param _to The address of the recipient\r\n     * @param _value the amount to send\r\n     */\r\n    function transferFrom(address _from, address _to, uint256 _value) public returns (bool success) {\r\n        require(_value <= allowance[_from][msg.sender]);     // Check allowance\r\n        allowance[_from][msg.sender] = allowance[_from][msg.sender].sub(_value);\r\n        _transfer(_from, _to, _value);\r\n        return true;\r\n    }\r\n\r\n    /**\r\n     * Set allowance for other address\r\n     *\r\n     * Allows `_spender` to spend no more than `_value` tokens on your behalf\r\n     *\r\n     * @param _spender The address authorized to spend\r\n     * @param _value the max amount they can spend\r\n     */\r\n    function approve(address _spender, uint256 _value) public\r\n        returns (bool success) {\r\n        allowance[msg.sender][_spender] = _value;\r\n        emit Approval(msg.sender, _spender, _value);\r\n        return true;\r\n    }\r\n\r\n    /**\r\n     * Set allowance for other address and notify\r\n     *\r\n     * Allows `_spender` to spend no more than `_value` tokens on your behalf, and then ping the contract about it\r\n     *\r\n     * @param _spender The address authorized to spend\r\n     * @param _value the max amount they can spend\r\n     * @param _extraData some extra information to send to the approved contract\r\n     */\r\n    function approveAndCall(address _spender, uint256 _value, bytes _extraData)\r\n        public\r\n        returns (bool success) {\r\n        tokenRecipient spender = tokenRecipient(_spender);\r\n        if (approve(_spender, _value)) {\r\n            spender.receiveApproval(msg.sender, _value, this, _extraData);\r\n            return true;\r\n        }\r\n    }\r\n\r\n    function allowance(address _owner, address _spender) public view returns (uint256 remaining) {\r\n        return allowance[_owner][_spender];\r\n    }\r\n\r\n    function mint() canPoSMint public returns (bool) {\r\n        if(balanceOf[msg.sender] <= 0) return false;\r\n        if(transferIns[msg.sender].length <= 0) return false;\r\n\r\n        uint reward = getProofOfStakeReward(msg.sender);\r\n        if(reward <= 0) return false;\r\n\r\n        totalSupply = totalSupply.add(reward);\r\n        balanceOf[msg.sender] = balanceOf[msg.sender].add(reward);\r\n        delete transferIns[msg.sender];\r\n        transferIns[msg.sender].push(transferInStruct(uint128(balanceOf[msg.sender]),uint64(now)));\r\n\r\n        emit Mint(msg.sender, reward);\r\n        return true;\r\n    }\r\n\r\n    function getBlockNumber() public view returns (uint blockNumber) {\r\n        blockNumber = block.number.sub(chainStartBlockNumber);\r\n    }\r\n\r\n    function coinAge() public view returns (uint myCoinAge) {\r\n        myCoinAge = getCoinAge(msg.sender,now);\r\n    }\r\n\r\n    function annualInterest() public view returns(uint interest) {\r\n        uint _now = now;\r\n        interest = maxMintProofOfStake;\r\n        if((_now.sub(stakeStartTime)).div(365 days) == 0) {\r\n            interest = (770 * maxMintProofOfStake).div(100);\r\n        } else if((_now.sub(stakeStartTime)).div(365 days) == 1){\r\n            interest = (435 * maxMintProofOfStake).div(100);\r\n        }\r\n    }\r\n\r\n    function getProofOfStakeReward(address _address) internal view returns (uint) {\r\n        require((now >= stakeStartTime) && (stakeStartTime > 0) );\r\n\r\n        uint _now = now;\r\n        uint _coinAge = getCoinAge(_address, _now);\r\n        if(_coinAge <= 0) return 0;\r\n\r\n        uint interest = maxMintProofOfStake;\r\n\r\n        if((_now.sub(stakeStartTime)).div(365 days) == 0) {\r\n\r\n            interest = (770 * maxMintProofOfStake).div(100);\r\n        } else if((_now.sub(stakeStartTime)).div(365 days) == 1){\r\n\r\n            interest = (435 * maxMintProofOfStake).div(100);\r\n        }\r\n\r\n        return (_coinAge * interest).div(365 * (10**decimals));\r\n    }\r\n\r\n    function getCoinAge(address _address, uint _now) internal view returns (uint _coinAge) {\r\n        if(transferIns[_address].length <= 0) return 0;\r\n\r\n        for (uint i = 0; i < transferIns[_address].length; i++){\r\n            if( _now < uint(transferIns[_address][i].time).add(stakeMinAge) ) continue;\r\n\r\n            uint nCoinSeconds = _now.sub(uint(transferIns[_address][i].time));\r\n            if( nCoinSeconds > stakeMaxAge ) nCoinSeconds = stakeMaxAge;\r\n\r\n            _coinAge = _coinAge.add(uint(transferIns[_address][i].amount) * nCoinSeconds.div(1 days));\r\n        }\r\n    }\r\n\r\n    function ownerSetStakeStartTime(uint timestamp) onlyOwner public {\r\n        require((stakeStartTime <= 0) && (timestamp >= chainStartTime));\r\n        stakeStartTime = timestamp;\r\n    }\r\n\r\n    function batchTransfer(address[] _recipients, uint[] _values) onlyOwner public returns (bool) {\r\n        require(_recipients.length > 0 && _recipients.length == _values.length);\r\n\r\n        uint total = 0;\r\n        for(uint i = 0; i < _values.length; i++){\r\n            total = total.add(_values[i]);\r\n        }\r\n        require(total <= balanceOf[msg.sender]);\r\n\r\n        uint64 _now = uint64(now);\r\n        for(uint j = 0; j < _recipients.length; j++){\r\n            balanceOf[_recipients[j]] = balanceOf[_recipients[j]].add(_values[j]);\r\n            transferIns[_recipients[j]].push(transferInStruct(uint128(_values[j]),_now));\r\n            emit Transfer(msg.sender, _recipients[j], _values[j]);\r\n        }\r\n\r\n        balanceOf[msg.sender] = balanceOf[msg.sender].sub(total);\r\n        if(transferIns[msg.sender].length > 0) delete transferIns[msg.sender];\r\n        if(balanceOf[msg.sender] > 0) transferIns[msg.sender].push(transferInStruct(uint128(balanceOf[msg.sender]),_now));\r\n\r\n        return true;\r\n    }\r\n    /**\r\n     * Destroy tokens\r\n     *\r\n     * Remove `_value` tokens from the system irreversibly\r\n     *\r\n     * @param _value the amount of money to burn\r\n     */\r\n    function burn(uint256 _value) public returns (bool success) {\r\n        require(balanceOf[msg.sender] >= _value && _value > 0);   // Check if the sender has enough\r\n        balanceOf[msg.sender] = balanceOf[msg.sender].sub(_value);            // Subtract from the sender\r\n        totalSupply = totalSupply.sub(_value);                      // Updates totalSupply\r\n        emit Burn(msg.sender, _value);\r\n        return true;\r\n    }\r\n\r\n    /**\r\n     * Destroy tokens from other account\r\n     *\r\n     * Remove `_value` tokens from the system irreversibly on behalf of `_from`.\r\n     *\r\n     * @param _from the address of the sender\r\n     * @param _value the amount of money to burn\r\n     */\r\n    function burnFrom(address _from, uint256 _value) public returns (bool success) {\r\n        require(balanceOf[_from] >= _value);                // Check if the targeted balance is enough\r\n        require(_value <= allowance[_from][msg.sender]);    // Check allowance\r\n        balanceOf[_from] = balanceOf[_from].sub(_value);                         // Subtract from the targeted balance\r\n        allowance[_from][msg.sender] = allowance[_from][msg.sender].sub(_value);             // Subtract from the sender's allowance\r\n        totalSupply = totalSupply.sub(_value);                              // Update totalSupply\r\n        emit Burn(_from, _value);\r\n        return true;\r\n    }\r\n}\r\n\r\n",
  "sourcePath": "/mnt/c/Users/bradu/Desktop/Loonie/contracts/Loonie.sol",
  "compiler": {
    "name": "solc",
    "version": "0.4.24+commit.e67f0147.Emscripten.clang"
  },
  "schemaVersion": "2.0.1",
  "updatedAt": "2018-08-19T11:57:23.049Z"
}