{
  "contractName": "LoonieTokenSale",
  "abi": [
    {
      "constant": true,
      "inputs": [],
      "name": "tokenSaleStart",
      "outputs": [
        {
          "name": "",
          "type": "uint8"
        }
      ],
      "payable": false,
      "stateMutability": "view",
      "type": "function"
    },
    {
      "constant": true,
      "inputs": [],
      "name": "weiRaised",
      "outputs": [
        {
          "name": "",
          "type": "uint256"
        }
      ],
      "payable": false,
      "stateMutability": "view",
      "type": "function"
    },
    {
      "constant": true,
      "inputs": [],
      "name": "tokensSold",
      "outputs": [
        {
          "name": "",
          "type": "uint256"
        }
      ],
      "payable": false,
      "stateMutability": "view",
      "type": "function"
    },
    {
      "constant": true,
      "inputs": [],
      "name": "targetAmount",
      "outputs": [
        {
          "name": "",
          "type": "uint256"
        }
      ],
      "payable": false,
      "stateMutability": "view",
      "type": "function"
    },
    {
      "constant": true,
      "inputs": [],
      "name": "price",
      "outputs": [
        {
          "name": "",
          "type": "uint256"
        }
      ],
      "payable": false,
      "stateMutability": "view",
      "type": "function"
    },
    {
      "constant": true,
      "inputs": [],
      "name": "loonieToken",
      "outputs": [
        {
          "name": "",
          "type": "address"
        }
      ],
      "payable": false,
      "stateMutability": "view",
      "type": "function"
    },
    {
      "constant": true,
      "inputs": [],
      "name": "tokeSaleEnd",
      "outputs": [
        {
          "name": "",
          "type": "uint8"
        }
      ],
      "payable": false,
      "stateMutability": "view",
      "type": "function"
    },
    {
      "inputs": [
        {
          "name": "_loonieToken",
          "type": "address"
        }
      ],
      "payable": false,
      "stateMutability": "nonpayable",
      "type": "constructor"
    },
    {
      "anonymous": false,
      "inputs": [
        {
          "indexed": true,
          "name": "_buyer",
          "type": "address"
        },
        {
          "indexed": false,
          "name": "_amount",
          "type": "uint256"
        }
      ],
      "name": "Sell",
      "type": "event"
    },
    {
      "constant": false,
      "inputs": [
        {
          "name": "_tokenAmount",
          "type": "uint256"
        }
      ],
      "name": "buyToken",
      "outputs": [
        {
          "name": "success",
          "type": "bool"
        }
      ],
      "payable": true,
      "stateMutability": "payable",
      "type": "function"
    }
  ],
  "bytecode": "0x6080604052651fd51291300060035534801561001a57600080fd5b506040516020806105248339810180604052810190808051906020019092919050505080600560006101000a81548173ffffffffffffffffffffffffffffffffffffffff021916908373ffffffffffffffffffffffffffffffffffffffff160217905550336000806101000a81548173ffffffffffffffffffffffffffffffffffffffff021916908373ffffffffffffffffffffffffffffffffffffffff16021790555050610456806100ce6000396000f30060806040526004361061008e576000357c0100000000000000000000000000000000000000000000000000000000900463ffffffff1680632d296bf114610093578063403911a6146100cb5780634042b66f146100fc578063518ab2a814610127578063953b8fb814610152578063a035b1fe1461017d578063ce02b2f8146101a8578063d1d9e9cf146101ff575b600080fd5b6100b160048036038101908080359060200190929190505050610230565b604051808215151515815260200191505060405180910390f35b3480156100d757600080fd5b506100e06103a5565b604051808260ff1660ff16815260200191505060405180910390f35b34801561010857600080fd5b506101116103b8565b6040518082815260200191505060405180910390f35b34801561013357600080fd5b5061013c6103be565b6040518082815260200191505060405180910390f35b34801561015e57600080fd5b506101676103c4565b6040518082815260200191505060405180910390f35b34801561018957600080fd5b506101926103ca565b6040518082815260200191505060405180910390f35b3480156101b457600080fd5b506101bd6103d0565b604051808273ffffffffffffffffffffffffffffffffffffffff1673ffffffffffffffffffffffffffffffffffffffff16815260200191505060405180910390f35b34801561020b57600080fd5b506102146103f6565b604051808260ff1660ff16815260200191505060405180910390f35b60006102478260045461040990919063ffffffff16565b600481905550600560009054906101000a900473ffffffffffffffffffffffffffffffffffffffff1673ffffffffffffffffffffffffffffffffffffffff1663a9059cbb33846040518363ffffffff167c0100000000000000000000000000000000000000000000000000000000028152600401808373ffffffffffffffffffffffffffffffffffffffff1673ffffffffffffffffffffffffffffffffffffffff16815260200182815260200192505050602060405180830381600087803b15801561031257600080fd5b505af1158015610326573d6000803e3d6000fd5b505050506040513d602081101561033c57600080fd5b8101908080519060200190929190505050503373ffffffffffffffffffffffffffffffffffffffff167f5e5e995ce3133561afceaa51a9a154d5db228cd7525d34df5185582c18d3df09836040518082815260200191505060405180910390a260019050919050565b600060149054906101000a900460ff1681565b60025481565b60045481565b60015481565b60035481565b600560009054906101000a900473ffffffffffffffffffffffffffffffffffffffff1681565b600060159054906101000a900460ff1681565b600080828401905083811015151561042057600080fd5b80915050929150505600a165627a7a72305820a28296a3ca8a1d95dd42c12241f0e3abcf0c2c90975a54fe96b79ac21190f6210029",
  "source": "pragma solidity ^0.4.24;\r\n\r\n/**\r\n* This contract is responsible for handling the \r\n* Loonie Token Sale (crowd funding for the Loonie project\r\n* @author insculpt\r\n*/\r\nimport \"./Loonie.sol\";\r\nimport \"./SafeMath.sol\";\r\n\r\ncontract LoonieTokenSale {\r\n    using SafeMath for uint256;\r\n\r\n    address admin;\r\n\r\n    uint8 public tokenSaleStart;\r\n    uint8 public tokeSaleEnd;\r\n    uint  public targetAmount;\r\n    uint  public weiRaised;\r\n    uint  public price = 35000000000000;\r\n    uint  public tokensSold;\r\n    // Instantiates the token contract within the sale contract to \r\n    Loonie public loonieToken;\r\n\r\n    //event Transfer(address indexed from, address indexed to, uint256 _value);\r\n    event Sell(address indexed _buyer, uint _amount );\r\n    constructor(\r\n    Loonie _loonieToken\r\n    )\r\n    public {\r\n        loonieToken = _loonieToken;\r\n        admin = msg.sender;\r\n       // price = 35000000000; // in wei\r\n    }\r\n    modifier onlyAdmin() {\r\n        require(msg.sender == admin, \"Only admin can perform this action\");\r\n        _;\r\n    }\r\n    /**\r\n    determines how many tokens a buyer will get based on the price\r\n    then sends the tokens to the sender\r\n    @param _tokenAmount amount of tokens the buyer wants\r\n    \r\n     */\r\n    function buyToken(uint _tokenAmount) public  payable returns(bool success) {\r\n        //require(_tokenAmount = ( _value.div(price)), \"Enter the correct amount of tokens\");\r\n       // require(loonieToken.allowance[admin][loonieToken.owner] >= 0, \"Send more ether\");\r\n        //keeps track of tokens sold\r\n\r\n        tokensSold = tokensSold.add(_tokenAmount);\r\n\r\n        // if(_tokenAmount < price.mul(100)){\r\n        //     balances(_sender) = balances(_sender).add(_sentAmount);\r\n            \r\n        // }\r\n        loonieToken.transfer(msg.sender, _tokenAmount);\r\n        emit Sell(msg.sender, _tokenAmount);\r\n        return true;\r\n    }\r\n\r\n\r\n\r\n}",
  "sourcePath": "/mnt/c/Users/bradu/Desktop/Loonie/contracts/LoonieTokenSale.sol",
  "compiler": {
    "name": "solc",
    "version": "0.4.24+commit.e67f0147.Emscripten.clang"
  },
  "schemaVersion": "2.0.1",
  "updatedAt": "2018-08-29T16:42:41.058Z"
}