{
  "contractName": "Ownable",
  "abi": [
    {
      "constant": true,
      "inputs": [],
      "name": "_owner",
      "outputs": [
        {
          "name": "",
          "type": "address"
        }
      ],
      "payable": false,
      "stateMutability": "view",
      "type": "function"
    },
    {
      "inputs": [],
      "payable": false,
      "stateMutability": "nonpayable",
      "type": "constructor"
    }
  ],
  "bytecode": "0x608060405234801561001057600080fd5b50336000806101000a81548173ffffffffffffffffffffffffffffffffffffffff021916908373ffffffffffffffffffffffffffffffffffffffff16021790555060e98061005f6000396000f300608060405260043610603f576000357c0100000000000000000000000000000000000000000000000000000000900463ffffffff168063b2bdfa7b146044575b600080fd5b348015604f57600080fd5b5060566098565b604051808273ffffffffffffffffffffffffffffffffffffffff1673ffffffffffffffffffffffffffffffffffffffff16815260200191505060405180910390f35b6000809054906101000a900473ffffffffffffffffffffffffffffffffffffffff16815600a165627a7a723058204bc9c1be7a7f6dd105a3baf549bd8435c0ad98ae3a07f29b82f5874049e6a9b80029",
  "source": "pragma solidity ^0.4.24;\r\n/**\r\n * This is the Loonie Token\r\n * The utility token for the Loonie platform\r\n * @author Insculpt Inc.\r\n */\r\n \r\n \r\n/**\r\n * @title SafeMath\r\n * @dev Math operations with safety checks that revert on error\r\n */\r\nlibrary SafeMath {\r\n\r\n  /**\r\n  * @dev Multiplies two numbers, reverts on overflow.\r\n  */\r\n  function mul(uint256 _a, uint256 _b) internal pure returns (uint256) {\r\n    // Gas optimization: this is cheaper than requiring 'a' not being zero, but the\r\n    // benefit is lost if 'b' is also tested.\r\n    // See: https://github.com/OpenZeppelin/openzeppelin-solidity/pull/522\r\n    if (_a == 0) {\r\n      return 0;\r\n    }\r\n\r\n    uint256 c = _a * _b;\r\n    require(c / _a == _b);\r\n\r\n    return c;\r\n  }\r\n\r\n  /**\r\n  * @dev Integer division of two numbers truncating the quotient, reverts on division by zero.\r\n  */\r\n  function div(uint256 _a, uint256 _b) internal pure returns (uint256) {\r\n    require(_b > 0); // Solidity only automatically asserts when dividing by 0\r\n    uint256 c = _a / _b;\r\n    // assert(_a == _b * c + _a % _b); // There is no case in which this doesn't hold\r\n\r\n    return c;\r\n  }\r\n\r\n  /**\r\n  * @dev Subtracts two numbers, reverts on overflow (i.e. if subtrahend is greater than minuend).\r\n  */\r\n  function sub(uint256 _a, uint256 _b) internal pure returns (uint256) {\r\n    require(_b <= _a);\r\n    uint256 c = _a - _b;\r\n\r\n    return c;\r\n  }\r\n\r\n  /**\r\n  * @dev Adds two numbers, reverts on overflow.\r\n  */\r\n  function add(uint256 _a, uint256 _b) internal pure returns (uint256) {\r\n    uint256 c = _a + _b;\r\n    require(c >= _a);\r\n\r\n    return c;\r\n  }\r\n\r\n  /**\r\n  * @dev Divides two numbers and returns the remainder (unsigned integer modulo),\r\n  * reverts when dividing by zero.\r\n  */\r\n  function mod(uint256 a, uint256 b) internal pure returns (uint256) {\r\n    require(b != 0);\r\n    return a % b;\r\n  }\r\n}\r\n\r\ninterface tokenRecipient { function receiveApproval(address _from, uint256 _value, address _token, bytes _extraData) external; }\r\n/**\r\n * The Ownable contract does this and that...\r\n */\r\ncontract Ownable {\r\n\taddress public _owner;\r\n    /**\r\n     * @dev The Ownable constructor sets the original `owner` of the contract to the sender\r\n     * account.\r\n     */\r\n    constructor() public {\r\n        _owner = msg.sender;\r\n    }\r\n\r\n\r\n    /**\r\n     * @dev Throws if called by any account other than the owner.\r\n     */\r\n    modifier onlyOwner() {\r\n        require(msg.sender == _owner);\r\n        _;\r\n    }\r\n}\r\n\r\n\r\ncontract Loonie is Ownable{\r\n\tusing SafeMath for uint256;\r\n\r\n    // Public variables of the token\r\n    string public name;\r\n    string public symbol;\r\n    uint8 public decimals = 18;\r\n    uint public chainStartTime;\r\n    uint public chainStartBlockNumber;\r\n    uint public stakeStartTime;\r\n    uint public stakeMinAge = 3 days;\r\n    uint public stakeMaxAge = 90 days;\r\n    uint public maxMintProofOfStake = 10**17;\r\n    // 18 decimals is the strongly suggested default, avoid changing it\r\n    uint256 public totalSupply;\r\n    uint256 public maxTotalSupply;\r\n    \r\n    struct transferInStruct{ // keeps track of individual transfers\r\n        uint128 amount;\r\n        uint64 time;\r\n    }\r\n\r\n    // This creates an array with all balanceOf\r\n    mapping (address => uint256) public balanceOf;\r\n    mapping (address => mapping (address => uint256)) public allowance;\r\n    mapping (address => transferInStruct[]) public transferIns;\r\n\r\n    // This generates a public event on the blockchain that will notify clients\r\n    event Transfer(address indexed from, address indexed to, uint256 value);\r\n    \r\n    // This generates a public event on the blockchain that will notify clients\r\n    event Approval(address indexed _owner, address indexed _spender, uint256 _value);\r\n\r\n    // This notifies clients about the amount burnt\r\n    event Burn(address indexed from, uint256 value);\r\n\r\n    // This notifies clients about the minted amount\r\n    event Mint(address indexed _address, uint _reward);\r\n\r\n    //This checks if there it's still possible to mine the token\r\n\tmodifier canPoSMint() {\r\n\t        require(totalSupply < maxTotalSupply);\r\n\t        _;\r\n\t    }\r\n    /**\r\n     * Constructor function\r\n     *\r\n     * Initializes contract with initial supply tokens to the creator of the contract\r\n     */\r\n    constructor(\r\n        uint256 initialSupply,\r\n        uint256 maxiTotalSupply,\r\n        string tokenName,\r\n        string tokenSymbol\r\n    ) public {\r\n        totalSupply = initialSupply.mul(10 ** uint256(decimals));  // Update total supply with the decimal amount\r\n        maxTotalSupply = maxiTotalSupply.mul(10 ** uint256(decimals)); // set the max total supply to ever exist\r\n        balanceOf[_owner] = totalSupply;                // Give the creator all initial tokens\r\n        name = tokenName;                                   // Set the name for display purposes\r\n        symbol = tokenSymbol;  \r\n        chainStartTime = now; //Original Time\r\n        chainStartBlockNumber = getBlockNumber(); //Original Block\r\n\r\n                                    \r\n    }\r\n\r\n    /**\r\n     * Internal transfer, only can be called by this contract\r\n     */\r\n    function _transfer(address _from, address _to, uint _value) internal {\r\n        // Prevent transfer to 0x0 address. Use burn() instead\r\n        require(_to != 0x0);\r\n        // Check if the sender has enough\r\n        require(balanceOf[_from] >= _value);\r\n        // Check for overflows\r\n        require(balanceOf[_to].add(_value) >= balanceOf[_to]);\r\n        // Save this for an assertion in the future\r\n        //if(_from == _to) return mint();\r\n        uint previousBalanceOfbalanceOf = balanceOf[_from].add(balanceOf[_to]);\r\n        // Subtract from the sender\r\n        balanceOf[_from] = balanceOf[_from].sub(_value);\r\n        // Add the same to the recipient\r\n        balanceOf[_to] = balanceOf[_to].add(_value);\r\n        emit Transfer(_from, _to, _value);\r\n        // Asserts are used to use static analysis to find bugs in your code. They should never fail\r\n        assert(balanceOf[_from].add(balanceOf[_to]) == previousBalanceOfbalanceOf);\r\n    }\r\n\r\n    /**\r\n     * Transfer tokens\r\n     *\r\n     * Send `_value` tokens to `_to` from your account\r\n     *\r\n     * @param _to The address of the recipient\r\n     * @param _value the amount to send\r\n     */\r\n    function transfer(address _to, uint256 _value) public returns (bool success) {    \t\r\n        _transfer(msg.sender, _to, _value);\r\n        return true;\r\n    }\r\n    \r\n    /**\r\n     * Transfer tokens from other address\r\n     *\r\n     * Send `_value` tokens to `_to` on behalf of `_from`\r\n     *\r\n     * @param _from The address of the sender\r\n     * @param _to The address of the recipient\r\n     * @param _value the amount to send\r\n     */\r\n    function transferFrom(address _from, address _to, uint256 _value) public returns (bool success) {\r\n        \r\n        require(_value <= allowance[_from][msg.sender]);     // Check allowance\r\n        allowance[_from][msg.sender] = allowance[_from][msg.sender].sub(_value);\r\n        _transfer(_from, _to, _value);\r\n        return true;\r\n    }\r\n\r\n    /**\r\n     * Set allowance for other address\r\n     *\r\n     * Allows `_spender` to spend no more than `_value` tokens on your behalf\r\n     *\r\n     * @param _spender The address authorized to spend\r\n     * @param _value the max amount they can spend\r\n     */\r\n    function approve(address _spender, uint256 _value) public\r\n        returns (bool success) {\r\n            \r\n        allowance[msg.sender][_spender] = _value;\r\n        emit Approval(msg.sender, _spender, _value);\r\n        return true;\r\n    }\r\n\r\n    /**\r\n     * Set allowance for other address and notify\r\n     *\r\n     * Allows `_spender` to spend no more than `_value` tokens on your behalf, and then ping the contract about it\r\n     *\r\n     * @param _spender The address authorized to spend\r\n     * @param _value the max amount they can spend\r\n     * @param _extraData some extra information to send to the approved contract\r\n     */\r\n    function approveAndCall(address _spender, uint256 _value, bytes _extraData)\r\n        public\r\n        returns (bool success) {\r\n        \r\n        tokenRecipient spender = tokenRecipient(_spender);\r\n        if (approve(_spender, _value)) {\r\n            spender.receiveApproval(msg.sender, _value, this, _extraData);\r\n            return true;\r\n        }\r\n    }\r\n\r\n   \r\n    function mint() canPoSMint public returns (bool) {\r\n        if(balanceOf[msg.sender] <= 0) return false;\r\n        if(transferIns[msg.sender].length <= 0) return false;\r\n\r\n        uint reward = getProofOfStakeReward(msg.sender);\r\n        if(reward <= 0) return false;\r\n\r\n        totalSupply = totalSupply.add(reward);\r\n        balanceOf[msg.sender] = balanceOf[msg.sender].add(reward);\r\n        delete transferIns[msg.sender];\r\n        transferIns[msg.sender].push(transferInStruct(uint128(balanceOf[msg.sender]),uint64(now)));\r\n\r\n        emit Mint(msg.sender, reward);\r\n        return true;\r\n    }\r\n\r\n    function getBlockNumber() public view returns (uint blockNumber) {\r\n        blockNumber = block.number.sub(chainStartBlockNumber);\r\n    }\r\n\r\n    function coinAge() public view returns (uint myCoinAge) {\r\n        myCoinAge = getCoinAge(msg.sender,now);\r\n    }\r\n\r\n    function annualInterest() public view returns(uint interest) {\r\n        uint _now = now;\r\n        interest = maxMintProofOfStake;\r\n        if((_now.sub(stakeStartTime)).div(365 days) == 0) {\r\n            interest = (770 * maxMintProofOfStake).div(100);\r\n        } else if((_now.sub(stakeStartTime)).div(365 days) == 1){\r\n            interest = (435 * maxMintProofOfStake).div(100);\r\n        }\r\n    }\r\n\r\n    function getProofOfStakeReward(address _address) internal view returns (uint) {\r\n        require((now >= stakeStartTime) && (stakeStartTime > 0) );\r\n\r\n        uint _now = now;\r\n        uint _coinAge = getCoinAge(_address, _now);\r\n        if(_coinAge <= 0) return 0;\r\n\r\n        uint interest = maxMintProofOfStake;\r\n\r\n        if((_now.sub(stakeStartTime)).div(365 days) == 0) {\r\n\r\n            interest = (770 * maxMintProofOfStake).div(100);\r\n        } else if((_now.sub(stakeStartTime)).div(365 days) == 1){\r\n\r\n            interest = (435 * maxMintProofOfStake).div(100);\r\n        }\r\n\r\n        return (_coinAge * interest).div(365 * (10**decimals));\r\n    }\r\n\r\n    function getCoinAge(address _address, uint _now) internal view returns (uint _coinAge) {\r\n        if(transferIns[_address].length <= 0) return 0;\r\n\r\n        for (uint i = 0; i < transferIns[_address].length; i++){\r\n            if( _now < uint(transferIns[_address][i].time).add(stakeMinAge) ) continue;\r\n\r\n            uint nCoinSeconds = _now.sub(uint(transferIns[_address][i].time));\r\n            if( nCoinSeconds > stakeMaxAge ) nCoinSeconds = stakeMaxAge;\r\n\r\n            _coinAge = _coinAge.add(uint(transferIns[_address][i].amount) * nCoinSeconds.div(1 days));\r\n        }\r\n    }\r\n\r\n    function ownerSetStakeStartTime(uint timestamp) onlyOwner public {\r\n        require((stakeStartTime <= 0) && (timestamp >= chainStartTime));\r\n        stakeStartTime = timestamp;\r\n    }\r\n\r\n \r\n    /**\r\n     * Destroy tokens\r\n     *\r\n     * Remove `_value` tokens from the system irreversibly\r\n     *\r\n     * @param _value the amount of money to burn\r\n     */\r\n    function burn(uint256 _value) public returns (bool success) {\r\n        \r\n        require(balanceOf[msg.sender] >= _value && _value > 0);   // Check if the sender has enough\r\n        balanceOf[msg.sender] = balanceOf[msg.sender].sub(_value);            // Subtract from the sender\r\n        totalSupply = totalSupply.sub(_value);                      // Updates totalSupply\r\n        emit Burn(msg.sender, _value);\r\n        return true;\r\n    }\r\n\r\n    /**\r\n     * Destroy tokens from other account\r\n     *\r\n     * Remove `_value` tokens from the system irreversibly on behalf of `_from`.\r\n     *\r\n     * @param _from the address of the sender\r\n     * @param _value the amount of money to burn\r\n     */\r\n    function burnFrom(address _from, uint256 _value) onlyOwner public returns (bool success) {\r\n        require(balanceOf[_from] >= _value);                // Check if the targeted balance is enough\r\n        require(_value <= allowance[_from][msg.sender]);    // Check allowance\r\n        balanceOf[_from] = balanceOf[_from].sub(_value);                         // Subtract from the targeted balance\r\n        allowance[_from][msg.sender] = allowance[_from][msg.sender].sub(_value);             // Subtract from the sender's allowance\r\n        totalSupply = totalSupply.sub(_value);                              // Update totalSupply\r\n        emit Burn(_from, _value);\r\n        return true;\r\n    }\r\n\r\n       // function batchTransfer(address[] _recipients, uint[] _values) onlyOwner public returns (bool) {\r\n    //     require(_recipients.length > 0 && _recipients.length == _values.length);\r\n\r\n    //     uint total = 0;\r\n    //     for(uint i = 0; i < _values.length; i++){\r\n    //         total = total.add(_values[i]);\r\n    //     }\r\n    //     require(total <= balanceOf[msg.sender]);\r\n\r\n    //     uint64 _now = uint64(now);\r\n    //     for(uint j = 0; j < _recipients.length; j++){\r\n    //         balanceOf[_recipients[j]] = balanceOf[_recipients[j]].add(_values[j]);\r\n    //         transferIns[_recipients[j]].push(transferInStruct(uint128(_values[j]),_now));\r\n    //         emit Transfer(msg.sender, _recipients[j], _values[j]);\r\n    //     }\r\n\r\n    //     balanceOf[msg.sender] = balanceOf[msg.sender].sub(total);\r\n    //     if(transferIns[msg.sender].length > 0) delete transferIns[msg.sender];\r\n    //     if(balanceOf[msg.sender] > 0) transferIns[msg.sender].push(transferInStruct(uint128(balanceOf[msg.sender]),_now));\r\n\r\n    //     return true;\r\n    // }\r\n}\r\n\r\n",
  "sourcePath": "/mnt/c/Users/bradu/Desktop/Loonie/contracts/Loonie.sol",
  "compiler": {
    "name": "solc",
    "version": "0.4.24+commit.e67f0147.Emscripten.clang"
  },
  "schemaVersion": "2.0.1",
  "updatedAt": "2018-08-20T22:27:03.714Z"
}